:020000040800F2
:1000000040BE002081460008E9080008EB0800080F
:10001000F7080008030900080F09000800000000A5
:100020000000000000000000000000001B090008A4
:100030001D09000800000000F320010805840008E5
:100040009B4600089B4600089B460008C53F0008E9
:100050009B4600089B4600089B4600089B460008FC
:100060009B4600089B4600089B4600089B460008EC
:100070009B4600089B460008393A00087B3D000873
:100080009B4600081D4600089B4600089B4600084A
:100090005D310008933100089B4600089B2B000847
:1000A000EF3600089B4600089B4600089B46000868
:1000B0009B460008373600089B4600089B46000810
:1000C0009B4600089B4600089B4600089B4600088C
:1000D0009B4600089B460008AD450008C139000852
:1000E0009B460008A73F00089B4600089B46000867
:1000F0009B4600089B4600089B460008FF2300081B
:100100009B4600089B4600089B4600089B4600084B
:10011000D53C0008852300089B460008C72B000833
:10012000452F00089B4600089B4600089B46000898
:100130009B4600089B4600089B4600089B4600081B
:100140009B4600089B4600089B4600089B4600080B
:100150009B4600089B4600089B4600089B460008FB
:100160009B4600089B4600089B4600089B460008EB
:100170009B4600089B4600089B4600089B460008DB
:100180009B4600089B46000800F002F800F05CF86F
:100190000AA090E8000C82448344AAF10107DA45E2
:1001A00001D100F051F8AFF2090EBAE80F0013F0D8
:1001B000010F18BFFB1A43F0010318477033010009
:1001C000903301000A444FF0000C10F8013B13F08B
:1001D000070408BF10F8014B1D1108BF10F8015BA0
:1001E000641E05D010F8016B641E01F8016BF9D193
:1001F00013F0080F1EBF10F8014BAD1C0C1B09D1EA
:100200006D1E58BF01F801CBFAD505E014F8016B5B
:1002100001F8016B6D1EF9D59142D6D370470000ED
:100220000023002400250026103A28BF78C1FBD8FF
:10023000520728BF30C148BF0B6070471FB512F08E
:100240009CF91FBD10B510BD11F005FF1146FFF759
:10025000F5FF00F0A7F911F023FF03B4FFF7F2FF59
:1002600003BC08F061F9000001B58CB000200A90D1
:100270000C980C9008F0CAF90BA80EF018F90BAA0C
:10028000012108460AF0A1F900BF00BF00BF08F035
:10029000F5FA0A9000BF00BFFE480078401CFD49F7
:1002A000087000BF00BF0A9808F0ECFA00BF00BF5A
:1002B00000BF0BAB0022F8A1FA480AF0F0FE0BA831
:1002C000032100220592CDE90621089010464FF443
:1002D00080711922F44BCDE90132CDE903100620DB
:1002E0000023F24AF2A10090F5480EF0B7FC0BA8EB
:1002F000032100220592CDE90621089010464FF413
:1003000080711922EF4BCDE90132CDE903100720AE
:100310000023ED4AEDA10090F0480EF09FFC0BA8E1
:10032000032100220592CDE90621089010464FF4E2
:1003300000713322EA4BCDE90132CDE903100920E7
:100340000023E84AE8A10090EB480EF087FC0BA8D8
:10035000032100220592CDE90621089010464FF4B2
:1003600000713322E54BCDE90132CDE903100520C0
:100370000023E34AE3A10090E6480EF06FFC0BA8CF
:10038000032100220592CDE90621089010464FF482
:1003900000713322E04BCDE90132CDE90310082092
:1003A0000023DE4ADEA10090E1480EF057FC0BA8C6
:1003B000032100220592CDE90621089010468021F4
:1003C0000C22DC4BCDE90132CDE903100A200023D9
:1003D000D94ADAA10090DD480EF040FC0BA80321B9
:1003E00000220592CDE906210890104680210C22BA
:1003F000D74BCDE90132CDE903100A200023D54ABD
:10040000D5A10090D8480EF029FC0BA803210022AA
:100410000592CDE906210890104680210C22D34B8D
:10042000CDE9013200230092CDE90310D04AD1A1D9
:10043000D4480EF013FC0BA8032100220592CDE94D
:1004400006210890104680210C22CF4BCDE90132C5
:10045000CDE903100D200023CC4ACDA10090CF4858
:100460000EF0FCFB0BA8032100220592CDE906212A
:10047000089010464FF480711922C94BCDE9013222
:10048000CDE9031018200023C64AC7A10090CA482E
:100490000EF0E4FB0BA80021C84A0223CDE900328C
:1004A000CDE9021032230A46C5A1C94810F0AFFDBC
:1004B0000BA80021C74A0223CDE90032CDE9021082
:1004C00032230A46C4A1C84810F0A1FD0BA80021A0
:1004D000C64A0223CDE90032CDE9021032230A4692
:1004E000C3A1C74810F093FD0BA80021C54A022301
:1004F000CDE90032CDE9021005230A46C2A1C64863
:1005000010F085FD0BA80021C44A0223CDE900327A
:10051000CDE9021005230A46C1A1C54810F077FDB8
:100520000BA9BD4810F051FF0BA9C14810F04DFFB9
:1005300000BF00BF00BF08F0A1F90A9000BF00BFD4
:1005400054480078401E5349087008460078A0B906
:10055000B8480088002809DD00BF00BF0A9808F0ED
:1005600091F900BF00BF0AF019FC0DE000BF00BF09
:100570000A9808F087F900BF06E000BF00BF0A989C
:1005800008F080F900BF00BF00BFAB48407820F002
:1005900080008030A84948700BA900200EF0B2FC02
:1005A0000DB000BD10B58AB00024A82007F036FFBA
:1005B0004FF4A06004F084F8642003F01DFD01F006
:1005C00051FF02F0EBFC002003F0C7FE03F008FC33
:1005D0004FF4164001F0B8FD4FF4165003F0BEF88A
:1005E0004FF4165003F05EFA4FF4165003F0CEFEAF
:1005F00001F05BFF02F0CAF902F090FA002011F05E
:10060000D0FA02F0EFFD02F07CFE02F010FA02F0E8
:1006100033FB0020894908608949C1F89402874961
:10062000083108608649C1F89C02642003F0E4FCAC
:10063000012082490860091D0860091D0860804981
:10064000C1F89C0209A809F0B3FD00BF00BF00BFBC
:1006500008F014F9044600BF00BF0E480078401CA3
:100660000C49087000BF00BF204608F00BF900BF1E
:1006700000BF00BF09A8032100220592CDE9062191
:10068000089010464FF4807119226E4BCDE901326B
:10069000DAE00000740200204952515F4556454E91
:1006A00054730000A83F002018190020D515000839
:1006B00052663433335461736B544342000000007C
:1006C0005418002048090020D10D00085063436FE2
:1006D0006D52785461736B5443420000C007002090
:1006E000480D00204D0E00085063436F6D54785440
:1006F00061736B544342000084080020142A0020D8
:100700003D1C000843616E5278305461736B544352
:10071000420000008C280020143200200F1D000829
:1007200043616E54785461736B544342000000007F
:1007300050290020F01E0020511A0008557348650A
:1007400061645461736B5443420000002C1E00200E
:10075000B4210020031B000855735461696C546177
:10076000736B544342000000F02000209C3D0020A9
:10077000FD1F0008506D436F6D52785461736B54C8
:1007800043420000D83C0020D83A0020F51D000864
:1007900044495461736B544342000000143A0020F2
:1007A0008C240020E11B000841646343616C6354A6
:1007B00061736B5443420000C82300209D1600085B
:1007C000546D724C6566744C696768740000000073
:1007D000281D0020AF160008546D725269676874B6
:1007E0004C696768740000005C1D0020C116000899
:1007F000546D7246726F6E744C69676874000000C5
:10080000901D0020D1160008546D7254696D654F1B
:100810007574436865636B00C41D0020C918000827
:10082000546D72416E67656C4D6F6E69746F7200C6
:10083000F81D00203802002084010020900244426C
:1008400000004442C0030020CDE903100320002330
:10085000AFF2EB521BA100901D480EF0FFF900BF54
:1008600000BF00BF08F00AF8044600BF00BF1948E7
:100870000078401E1749087008460078A0B916484D
:100880000088002809DD00BF00BF204607F0FAFFFE
:1008900000BF00BF0AF082FA0DE000BF00BF204693
:1008A00007F0F0FF00BF06E000BF00BF204607F0E2
:1008B000E9FF00BF00BF00BF09A809F026FF002024
:1008C0000AB010BD7374617274207461736B0000A0
:1008D000FC020020740200203802002000BF011E2C
:1008E000A0F10100FBD17047704703E06FF07F403B
:1008F000FFF7F4FFFAE703E06FF07F40FFF7EEFF4A
:10090000FAE703E06FF07F40FFF7E8FFFAE703E064
:100910006FF07F40FFF7E2FFFAE770477047000093
:100920000CB50020019000907648006840F48030BB
:100930007449086000BF7348006800F400300090FC
:100940000198401C0190009818B90198B0F5A04F8B
:10095000F1D16C48006800F4003010B10120009023
:1009600001E0002000900098012846D16548403001
:10097000006840F080506349403108606248006878
:1009800040F44040604908605E48083000685D49B6
:10099000083108600846006840F4004008600846D6
:1009A000006840F4A05008605848091F0860081FFC
:1009B000006840F08070091F086000BF514800685F
:1009C00000F000700028F9D040F20570504908602E
:1009D0004C480830006820F003004A49083108609C
:1009E0000846006840F00200086000BF4548083033
:1009F000006800F00C000828F8D10CBD10B545487F
:100A0000006840F47000434908603E48006840F0C8
:100A100001003C49086000203A4908310860394823
:100A200000683D490840374908603C48091D086096
:100A3000081F006820F48020091F08600020314949
:100A40000C310860FFF76CFF4FF0006031498039CE
:100A5000086010BD70B5002000220223002402218E
:100A6000284D08352D6805F00C0020B1042806D06B
:100A7000082834D107E02A4D2A4E356033E02A4D4C
:100A8000284E35602FE01F4D2D1D2D68C5F3805475
:100A90001C4D2D1D2D6805F03F0154B1224DB5FBB5
:100AA000F1F5184E361D3668C6F3881605FB06F2BA
:100AB00009E01B4DB5FBF1F5124E361D3668C6F345
:100AC000881605FB06F20F4D2D1D2D68C5F3014557
:100AD0006D1C6B00B2FBF3F5124E356003E0104D58
:100AE000104E356000BF00BF064D08352D68C5F3B8
:100AF00003150E4E705D0B4D2D68C540094E3560D7
:100B000070BD0000003802400070004008544007EB
:100B1000003C024088ED00E0FFFFF6FE10300024AC
:100B20000024F4000000002000127A0004000020DD
:100B30002DE9F04F03460C46002600BFDD7805F591
:100B4000FA625F7893F802C094F8008094F80190FC
:100B500094F802A040F2B27120E04FEAE17B01EB91
:100B60009B7B4FEAAB0BA1EB8B0BBBF1000F08D1CA
:100B70004FF0640B91FBFBFE0BFB1E1BBBF1000F48
:100B800008D14FF4C87B91FBFBFE0BFB1E1BBBF196
:100B9000000F01D1751CAEB24D1CA9B29142DCDB35
:100BA000A2F2B275AD1B40F26D1B05FB0BF54FF0C9
:100BB000B70B06FB0BFB05EB4B00012128E00229DC
:100BC0001ED14FEAE27B02EB9B7B4FEAAB0BA2EB21
:100BD0008B0BBBF1000F08D14FF0640B92FBFBFEB7
:100BE0000BFB1E2BBBF1000F08D14FF4C87B92FB0F
:100BF000FBFE0BFB1E2BBBF1000F01D11D3005E0EE
:100C00004D1EDFF80CB41BF8055028444D1CA9B24A
:100C1000B942D4DBACF101052844FE4D4543C8EB95
:100C2000481BCBEB082B05EB0B15C9EB091B05EBA0
:100C30008B0505EB0A00BDE8F08F70B50446002572
:100C40004FF48071F44811F087F92078F249087068
:100C500060784870A0788870E078C8702079087152
:100C600000BF05E0601D415D681DEB4A11546D1C1D
:100C70002079A842F6DC94F80511681DE64A115463
:100C80002079811D104601F05AFB4FF48071601DE0
:100C900011F062F970BD2DE9F04105460C460026C1
:100CA00005B114B90020BDE8F08101F0D6FEFBEEDD
:100CB000040A30EE600A9FEDD91AC0EE010A9FEDDA
:100CC000D80A20EE800ABCEEC00A10EE100A68773F
:100CD000D449002006F032FFD349002006F094FEEC
:100CE000D149D048FFF724FFC5F80100AA202070A1
:100CF0006078401C60700120A0700020E0706220CD
:100D0000207162222946601D11F0E1F82079002847
:100D100008DD002603E0601D805D4740761C2079D9
:100D2000B042F8DC84F805710120BCE72DE9F04100
:100D300005460C460026002705B114B90120BDE880
:100D4000F0812878AA2801D00220F8E728782070BE
:100D500068786070A878A070E878E07028792071D1
:100D60002279691D601D11F0B2F82179681D405C7F
:100D700084F80501002603E0601D805D4740761C75
:100D80002079B042F8DC94F80501B84201D1002086
:100D9000D5E70320D3E770B505460026A34C09E04C
:100DA0002078A978884204D1284661688847064699
:100DB00003E0083460680028F2D100BF606808B919
:100DC0008120E870022E02D12846FFF736FF70BD61
:100DD0000EB53AE002A800214FF482730A46CDE92D
:100DE0000010042192480AF01AFB9248006808B9E2
:100DF000012000E000208F4908608F480078C0F390
:100E0000C00000B121E000208C49086001F095FA93
:100E10008B4908608B498A480068FFF787FF98B9BB
:100E20008548007820F00400001D8349087085483B
:100E3000FFF7B1FF4FF48371824811F08DF88021E4
:100E40007F48006811F088F800BFC3E70EB510E0D6
:100E50007D497E48FFF71FFF7B48FFF7EEFE02A8A3
:100E6000082100230122CDE90010194618460FF091
:100E700090FEEDE70146002008710320704701460F
:100E8000002008717047014600200871704770B556
:100E90002DED068B0446217BE07A41EA002005B265
:100EA000A07A46B2304602F091FAB0EE408A01F0E4
:100EB000D4FDF0EE408A60480078C0F3401038B1AD
:100EC0005D480078C0F3801010B1002D00DD0025D2
:100ED00059480078C0F3401040B1574800780121CC
:100EE000B1EBD01F02D1002D00DA00255248007866
:100EF000C0F3400000B10025284603F06BF938EE3E
:100F0000C80A10EE101A084611F0C6FA41EC1A0B86
:100F1000B0EE4A0AF0EE6A0A11F026F9B0EE409AF5
:100F2000F0EE609A9FED4A0B53EC102B51EC190B2D
:100F300011F078F900D214E0F4EEC88AF1EE10FA5C
:100F400007D2B0EE480A40F6AC51012002F0B1FAE7
:100F500006E0B0EE480A40F6AC51002002F0A9FAD3
:100F600000BF00202071E070BDEC068B70BDF8B5AD
:100F70000446A07A46B2E17A207B41EA002005B21D
:100F8000B4F80D000090002E07DDBBEE040A40F619
:100F9000AC51002002F08DFA0BE0002E07DAB3EE20
:100FA000040A40F6AC51012002F083FA01E002F09D
:100FB000CEFA21480078C0F3401038B11E480078BE
:100FC000C0F3801010B1002D00DD00251A48007814
:100FD000C0F3401040B1184800780121B1EBD01F98
:100FE00002D1002D00DA002513480078C0F340003C
:100FF00000B10025284603F0EDF89DF8001088099F
:10100000002101F029FB9DF80010C1F3401023E0FE
:101010008E250108805101004E160020000020425C
:1010200000007F4318000020140000201C00002056
:10103000A83F002094024442840100209401002033
:10104000480100204E17002048150020E400002031
:10105000000000000000F03F002101F03DFB9DF882
:101060000010C1F30010002101F04CFB9DF80010AE
:10107000C1F3C000002101F0EAFB9DF80010C1F3AC
:101080008000002101F034FC9DF80010C1F3400005
:10109000002101F05CFB9DF80110C809002101F05E
:1010A0008EFB0020F8BD10B50446002003F092F836
:1010B00002F04DFA002010BD70B50546A87A44B282
:1010C000002C07DDBBEE040A40F6AC51002002F014
:1010D000F0F90BE0002C07DAB3EE040A40F6AC514D
:1010E000012002F0E6F901E002F031FA002070BDC3
:1010F00070B50546A97AE87A41EA002004B275483D
:101100000078C0F3401038B172480078C0F3801006
:1011100010B1002C00DD00246E480078C0F34010B0
:1011200040B16C4800780121B1EBD01F02D1002CF6
:1011300000DA002467480078C0F3400000B10024C2
:10114000204603F047F8002070BD70B50446A57A2C
:1011500005F00300002101F07FFA002070BD70B59A
:101160000446A57A05F00100002101F0B5FA00203F
:1011700070BD70B50446A57A0021284601F0C2FA78
:10118000002070BD70B50446A57A0021284601F004
:101190005EFB002070BD70B50446A57A002128468C
:1011A00001F0A6FB002070BD70B50446A57A0021B1
:1011B000284601F0CCFA002070BD70B50446A57A2F
:1011C0000021284601F0FBFA002070BD70B50446EE
:1011D000A07A46B2E17A207B41EA002005B2002ED7
:1011E00007DDBBEE040A40F6AC51002002F061F9C5
:1011F0000BE0002E07DAB3EE040A40F6AC510120F2
:1012000002F057F901E002F0A2F932480078C0F389
:10121000401038B12F480078C0F3801010B1002D75
:1012200000DD00252B480078C0F3401040B129486C
:1012300000780121B1EBD01F02D1002D00DA00258A
:1012400024480078C0F3400000B10025284602F091
:10125000C1FF002070BD70B50446A57A0021284664
:1012600001F0E7FA002070BD70B50446A57A0021B0
:10127000284601F0B2FA002070BD70B50446A57A88
:101280000021284601F07BFA002070BD70B50446AD
:10129000A57A0021284601F0B0FA002070BD70B593
:1012A0000446A57A0021284601F0B5FA002070BD59
:1012B000014600207047014606480078420905486B
:1012C000007862F34510034A107000207047014611
:1012D00000207047840100202DE9F04107460025D9
:1012E00000240226D548C178807801EB002005B2A1
:1012F000D2484179007901EB002004B22DB1C82D0C
:1013000003DA15F1C80F00DD00252CB1C82C03DA73
:1013100014F1C80F00DD0024C948007800F0010076
:1013200020B9C7480078C0F3400000B10024002C69
:1013300001DD032604E0002C01DA042600E0022689
:10134000BF480078C0F3401070B1BD480078C0F3CA
:10135000801048B1032E07D10020BA49086000214F
:10136000012001F0CFF90024B5480078C0F3401007
:1013700078B1B34800780121B1EBD01F09D1042E18
:1013800007D10020AF4908600021012001F0BAF91F
:10139000002405B934B1A9488079012808D1A748AB
:1013A000C07928B902F0D3F8002002F013FF1DE045
:1013B000002D07DDB3EE040A40F6D861002002F0EC
:1013C00078F80BE0002D07DABBEE040A40F6D8618E
:1013D000012002F06EF801E002F0B9F81CB12046DD
:1013E00002F0F8FE02E0002002F0F4FEBDE8F08119
:1013F00070B50546AC79EE7904F0010092490870A9
:1014000004F002009149087004F00400904908704B
:1014100004F008008F49087004F010008E4908702D
:1014200004F020008D49087006F002008C49087015
:1014300004F080008B49087006F001008A490870AA
:101440008148007889490978884215D07E4800781B
:1014500060B1002002F0BEFE02F079F87848007812
:1014600020F00100401C7649087005E074480078BF
:1014700020F0010072490870744800787C490978AE
:1014800088420BD07148007820B10021012001F082
:10149000E3F803E00021084601F0DEF86C4800782C
:1014A0007449097888420BD06948007820B100213E
:1014B000012001F04CF903E00021084601F047F952
:1014C000644800786C490978884221D061480078E6
:1014D00070B15B48007820F02000594908706748D7
:1014E00090F8200020F00100644981F820000FE00E
:1014F0005348007820F020002030514908705F48A0
:1015000090F8200020F00100401C5C4981F8200088
:10151000514800785A49097888420BD04E480078E3
:1015200020B10021012001F084F903E000210846E8
:1015300001F07FF94948007852490978884200D083
:1015400000BF4748007850490978884200D000BF62
:10155000444800784D490978884200D000BF42488D
:1015600000784B490978884200D000BF364800789F
:101570003E490870354800783D4908703448007885
:101580003C490870334800783B490870324800787D
:101590003B490870314800783A4908703048007873
:1015A000394908702F480078384908702E4800786B
:1015B0003749087070BD10B504462046FFF718FF84
:1015C0002046FFF789FE002044F8010F6060A0600C
:1015D000641E10BD0EB500242FE002A800214FF4B8
:1015E00082730A46CDE9001002212A4809F017FF4C
:1015F0000020294908601248007820F008000830CF
:101600000F49087002F0A3F904462078AA2814D1E3
:10161000E079BB2811D1E07ACC280ED10748401CD4
:101620002168016061684160A1688160401EFFF728
:10163000C2FF002020606060A060CEE7181D00207F
:1016400084010020B00100204C0100204D01002049
:101650004E0100204F0100205001002051010020C8
:1016600052010020530100205401002055010020A8
:10167000560100205701002058010020E4000020FE
:10168000590100205A0100205B0100205C0100206C
:101690005D010020A83F00209001002070B50446A5
:1016A0000D464FF48061AD4803F087F970BD70B509
:1016B00004460D464FF40061A84803F07EF970BD62
:1016C00070B504460D460221A54803F076F970BDB9
:1016D00070B504460D46A3480068401CA149086047
:1016E000A1480068401CA0490860A0480068401C50
:1016F0009E4908609E480068401C9D4908609D48BE
:101700000068401C9B4908609B480068401C9A493F
:1017100008609A480068401C98490860984800682A
:10172000401C9749086097480068401C954908602C
:1017300095480068401C9449086094480068401C23
:101740009249086092480068401C9149086091489D
:101750000068401C8F4908608F480068401C8E4913
:1017600008608E480068401C8C4908607E4800680C
:101770000A2810D18A48007820F0080088490870AB
:101780000846007820F0010008708648C08B10B130
:10179000002002F01FFD754800680A2810D180481B
:1017A000007820F004007E4908707E48C08B38B174
:1017B00008460078C0F3C00010B9002002F00AFD0E
:1017C0006A480068282805D367480068282801D39C
:1017D00001F0DBFE70480068C82807D10223002210
:1017E00046F260012B2002F057FC22E06A480068B4
:1017F000C92807D10623002246F240012B2002F01F
:101800004BFC16E064480068CA2807D10723002271
:1018100046F240012B2002F03FFC0AE05E480068DF
:10182000CB2806D10F23002246F240012B2002F0E4
:1018300033FC50480068642808D1002002F0C4FC42
:101840005748007820F01000554908704A48006851
:10185000282803D10021084600F054FF47480068BB
:101860003C2808D14E48007820F002004C4908700E
:1018700001204D490860424800681E2803D100211C
:10188000084600F03FFF41480068642803D100216A
:10189000084600F05CFF3E480068642803D1002140
:1018A000084600F0C6FF3B480068642803D10021C9
:1018B000084600F0BEFF39480068642803D10021C3
:1018C000084600F044FF70BD70B52DED028B044654
:1018D0000D4601F0C2F8B0EE408ABFEE080AB4EE41
:1018E000C08AF1EE10FA13D22D484078C0F3C1003F
:1018F00018B10021084600F0AAFF29484078C0F33B
:101900004110012827D00021012000F0F1FF22E042
:10191000B7EE080AB4EEC08AF1EE10FA13DD2048E3
:101920004078C0F3411018B10021084600F0E0FFF4
:101930001B484078C0F3C10001280CD000210120D1
:1019400000F085FF07E00021084600F080FF00213D
:10195000084600F0CDFFBDEC028B70BD00180240C0
:10196000000C02408C010020900100209401002016
:10197000980100209C010020A0010020A40100206B
:10198000B0010020A8010020AC010020B40100201B
:10199000B8010020BC010020C0010020C4010020CB
:1019A00084010020E40000209C02444210B502465D
:1019B000002302B109B9012010BD1078AA2801D076
:1019C0000220F9E75078552801D00320F4E79078F9
:1019D0005A2804D09078A52801D00420ECE790780C
:1019E000087090781844C3B208785A2814D1D07877
:1019F000487048781844C3B21079887088781844C1
:101A0000C3B25079C870C8781844C3B290790871CD
:101A100008791844C3B213E0D07848714879184463
:101A2000C3B21079887188791844C3B25079C871EB
:101A3000C8791844C3B290790872087A1844C3B2BE
:101A4000D8B2D479A04201D00520B5E70020B3E791
:101A50001CB50025002453E0574800214FF4827341
:101A60000A46CDE900100821544809F0D8FC02F0DC
:101A700015F853490860534951480068FFF796FF2D
:101A8000054605B13CE04F48407864280BDB4D48E3
:101A90008078642807DB4B48C078642803DB49481A
:101AA0000079642801DA641C06E04748007820F0D9
:101AB0004000454908700024032C0ED342480078AA
:101AC00020F040004030404908704048006808B9A4
:101AD000012000E000203D4908603B480078C0F349
:101AE000401000B90CE038480078C0F3801030B1E5
:101AF00037480078032802D1002002F06BFB00BFBA
:101B0000AAE71CB50025002454E0324800214FF418
:101B100082730A46CDE900101021284809F07FFCA5
:101B200001F0BEFF2C4908602C492B480068FFF7E4
:101B30003DFF054605B13DE02848407964280BDBB0
:101B400026488079642807DB2448C079642803DBB1
:101B50002248007A642801DA641C06E000241A484E
:101B6000007820F0800018490870032C10D3164824
:101B7000007820F080008030134908701348001D61
:101B8000006808B9012000E000201049091D086024
:101B90000D480078C0F3401000B90BE00A48007807
:101BA000C00930B10A480078042802D1002002F0B0
:101BB00011FB00BFA9E7000060010020A83F002042
:101BC00064010020B42300208401002090024442DC
:101BD000FF010020680100206C010020BD230020CF
:101BE0002DED028B82B020E0104800214FF482736B
:101BF0000A46CDE90010191F0D4809F010FC01F04C
:101C000045F90C4840890C4948820A48008AA1F8E5
:101C10001B000848C089A1F8190000F01EFFB0EEB3
:101C2000408A01F0A6FB04494877DDE770010020F7
:101C3000A83F00206E420020E40000200EB50025E1
:101C4000002463E002A800214FF482730A46CDE924
:101C500000102021624809F0E2FB01F07DFA044601
:101C600040F281512068884250D1217B607B01EB9A
:101C7000002085B200205B490860A5F50050393886
:101C800088B1A0F6D770F8B1A0F54050323810B145
:101C9000222839D129E0E27B217C02EB012108B224
:101CA0005149C88331E0A17C0A06617C02EB014204
:101CB000217C02EB0122E17B50184FF47A7190FBFA
:101CC000F1F1494AD17520E0A17C0A06617C02EB62
:101CD0000142217C02EB0122E17B50184FF47A7122
:101CE00090FBF1F1404A91750FE040480068401EBA
:101CF0003E490860E07B3E490870207C4870607C6B
:101D00008870A07CC87000E000BF00BF9AE70EB5E5
:101D100064E002A808210A230022CDE90010114640
:101D200010460EF036FF0023022242F23901402015
:101D300002F0B2F902A808210A230022CDE900101E
:101D4000114610460EF025FF0023022243F2100137
:101D5000402002F0A1F902A808210A230022CDE9BF
:101D60000010114610460EF014FF00231A4646F2EA
:101D70006401402002F090F902A808210A23002201
:101D8000CDE90010114610460EF003FF00231A465D
:101D900046F24201402002F07FF902A808210A23FE
:101DA0000022CDE90010114610460EF0F2FE02A806
:101DB00008210A230022CDE90010114610460EF03A
:101DC000E8FE0B480068404240000949086001F005
:101DD00085F906480068401C0449086099E700003E
:101DE000A83F002098010020E4000020740100209A
:101DF000780100200EB50024002500260027AEE063
:101E00005748006808B9641C00E0002454480838AA
:101E1000006808B96D1C06E000255248007D20F0DE
:101E20001000504908755048006808B9761C06E053
:101E300000264C48007D20F040004A4908754A4879
:101E40001030006808B97F1C09E000274548007D74
:101E500020F080004349087500204449086042484A
:101E6000001D006870B94248807800F0010080B120
:101E70000020404908603E48807820F001003C493D
:101E8000887006E03A48807820F00100401C38490C
:101E90008870022C08DD6FF03B0400203649086092
:101EA0000021012000F053FC022D08DD6FF03B05FE
:101EB0000020324908600021012000F0BAFC022E07
:101EC0000FDD6FF03B062748007D20F040004030DA
:101ED0002449087500202A4908600021012000F0EB
:101EE000A8FC022F0CDD6FF03B071E48007D20F0A0
:101EF000800080301B4908750021084600F027FC4F
:101F00001848807D00EE900AF8EE600AB0EE600A94
:101F1000B7EE001ADFED1B0A00F0DBF8012801D153
:101F200000F016FD0F48807D00EE900AF8EE600A82
:101F3000B0EE600AB7EE001ADFED120A00F0C9F841
:101F4000401C10B9022000F003FD02A80821642300
:101F50000022CDE90010114610460EF01AFE4FE7A0
:101F600020824342E400002020824142C40100203C
:101F700084010020C0010020B4010020B80100202D
:101F8000BC01002000001C420246002302B109B936
:101F9000012070471078AA2801D00220F9E7507874
:101FA000C02801D00320F4E790788870887818441E
:101FB000C3B2D078C870C8781844C3B21079087119
:101FC00008791844C3B25079487148791844C3B2AB
:101FD0009079887188791844C3B2D079C871C8796A
:101FE0001844C3B2107A984201D00420D1E7507A45
:101FF000AB2801D00520CCE70020CAE71CB500249F
:102000002CE0174800214FF482730A46CDE90010F6
:102010008021144809F003FA02F0B6F91249086069
:10202000124911480068FFF7AFFF044610210E481F
:1020300000680FF091FF04B110E00C4880780B4964
:10204000C97800EB01200A49C8810848007907498E
:10205000497900EB01200649088200BFD1E7000062
:102060007C010020A83F0020800100209C3F002030
:10207000E4000020012080F3138800BF00BF00BFF0
:1020800000BF00BF00BFBFF34F8F00BF00BF00BF46
:102090002A48006800F4E06029490843001D2749E8
:1020A000086000BF00BF00BFBFF34F8F00BF00BF7D
:1020B00000BF00E000BFFDE7002105E001228A40EB
:1020C00020FA02F25040491C01228A40202AF5D30E
:1020D000704700201B49D1ED001AB4EEE10AF1EE81
:1020E00010FA0ADD70EE811AF4EEC01AF1EE10FA61
:1020F00001D201200CE000200AE070EEC11AF4EEDB
:10210000C01AF1EE10FA02DD4FF0FF3000E00020BF
:1021100070EE811AF4EEC01AF1EE10FA00D201202E
:1021200070EEC11AF4EEC01AF1EE10FA01DD4FF0B4
:10213000FF30044981ED000A704700000CED00E01B
:102140000000FA05C801002010B596B00446012130
:10215000B84802F049FE0121080502F08EFE352044
:102160008DF8440001208DF8450000208DF84600D0
:1021700001208DF8470011A802F0A7FA0B208DF876
:10218000440001208DF8450002208DF84600012012
:102190008DF8470011A802F098FA2F208DF844001E
:1021A00001208DF8450003208DF8460001208DF8B0
:1021B000470011A802F089FA04200F9002208DF840
:1021C00040008DF8410000208DF8420001208DF87C
:1021D00043000FA9984802F069FB4FF480500F901C
:1021E00002208DF840008DF8410000208DF842005B
:1021F00001208DF843000FA9904802F057FB0822F8
:1022000002218D4802F0DDFB08220C218B4802F0F0
:10221000D8FB12940020ADF84C00ADF84E00ADF89C
:102220005000ADF854000C20ADF8520012A98448BB
:1022300002F0DFFF834804F01BFF4FF000600090C6
:102240007F48001D0190804802900020039080206C
:102250000490002005904FF48060069000200790C5
:10226000089009904FF440300A9000200B90012014
:102270000C9000200D900E906946724804F09AFF71
:102280000121704804F0D0FF6E48A83004F0F0FE41
:102290004FF0006000906A48001D01906B4802906A
:1022A0004020039080200490002005904FF480602F
:1022B000069000200790089009904FF440300A9053
:1022C00000200B9001200C9000200D900E9069468C
:1022D0005C48A83004F06EFF01215A48A83004F091
:1022E000A3FF012210215748A83005F02AF8012247
:1022F00040F22441524803F0BAF8002240F225513E
:102300004F4803F0B4F8002240F227714C4803F024
:10231000AEF8012280214A4803F0A0F801224021B2
:10232000474803F09BF84021454803F0C5F80121D8
:10233000434802F0E6FF16B010BD4548704770B53F
:1023400005460C461CB928460FF0A2FD84B200BF1A
:10235000404800780028FBD000203E490870224603
:1023600029463A480FF0B3FD38483649B431086081
:1023700034481038C0F8BC4001213248A83004F07D
:1023800053FF70BD08B507F09BFF40F224412C4875
:1023900003F0A8F880B340F22441294803F0DDF8A7
:1023A000274802F0DDFF0021264804F03DFF2A49BE
:1023B000244804F0B2FF234810384069C0F180007F
:1023C00000B22149A1F88000802221480FF07FFD52
:1023D00080211D480FF0C0FD6B46002204211F48DC
:1023E00009F001FD184817491039C861802048617B
:1023F0000121144804F018FF07F073FF08BD10B561
:1024000007F05EFF16490F48A83004F0B7FF012817
:102410000CD100210B48A83004F006FF10490948F0
:10242000A83004F0D5FF01200A49087007F059FFD1
:1024300010BD00000C002000000C0240000802400B
:10244000005000401060024052400020D03F002069
:10245000D4400020CC01002020000010A83F002024
:10246000008000281CB50121080202F0BDFCF0200C
:10247000009001208DF8040000208DF806008DF8F2
:10248000070003208DF805006946FC4802F00EFAAB
:102490000120FB490860FB49C1F89402F849083162
:1024A0000860F849C1F89C021CBD1CB501214820F8
:1024B00002F09AFC01210A2002F096FC012148203A
:1024C00002F092FC0121482002F08EFC01208DF8E0
:1024D000040000208DF806008DF8070002208DF81A
:1024E0000500000200906946E74802F0DFF920206D
:1024F00000906946E54802F0D9F94020009069460D
:10250000E24802F0D3F9802000906946DF4802F0EB
:10251000CDF9102000906946DC4802F0C7F9082088
:1025200000906946D94802F0C1F908200090694638
:10253000D74802F0BBF9102000906946D44802F059
:10254000B5F9022000906946D04802F0AFF90120A9
:1025500000906946CD4802F0A9F94FF480600090E0
:102560006946C94802F0A2F94FF40060009069463C
:10257000C54802F09BF94FF4805000906946C2486C
:1025800002F094F94FF4005000906946BE4802F002
:102590008DF94FF4804000906946BB4802F086F9FF
:1025A0004FF4004000906946B74802F07FF94FF4BD
:1025B000007000906946B64802F078F94FF4406028
:1025C00000906946B14802F071F90120B1490860F4
:1025D0000020B149C1F8AC028021AC4802F0E2F918
:1025E0001CBD1CB50121042002F0FEFB01208DF86A
:1025F00004008DF806008DF8070002208DF8050014
:10260000C00100906946A54802F050F91CBD1CB5F8
:102610000121202002F0E8FB01208DF804000020B9
:102620008DF806008DF8070002208DF80500800364
:10263000009069469A4802F039F91CBD70B504460D
:102640000D4624B90821914802F0AEF903E00821B3
:102650008E4802F0A7F970BD70B504460D4694B9D6
:10266000904B0022114690480EF05BFF02218748F4
:1026700002F09AF98D4890F8200020F0C0008B49B4
:1026800081F8200027E0012C13D1864B002211464F
:1026900085480EF046FF02217C4802F083F983480A
:1026A00090F8200020F0C0004030804981F82000E0
:1026B00011E04FF48061744802F074F979497A4866
:1026C0000EF083FE794890F8200020F0C0008030A2
:1026D000764981F8200070BD70B504460D4624B9D6
:1026E00001216A4802F060F903E00121674802F025
:1026F00059F96E4890F8200064F345106B4981F851
:10270000200070BD70B504460D465CB94FF4805191
:102710005D4802F049F96648407820F001006449BC
:1027200048700BE04FF48051574802F03BF9604885
:10273000407820F00100401C5D4948705B4890F8EB
:10274000200064F30410594981F8200070BD70B571
:1027500004460D462CB94FF400514B4802F024F9C1
:1027600004E04FF40051484802F01CF94F4890F83B
:10277000200064F341004D4981F8200070BD70B520
:1027800004460D462CB94FF480413F4802F00CF945
:1027900004E04FF480413C4802F004F970BD70B58C
:1027A00004460D462CB94FF40041374802F0FCF8BE
:1027B00004E04FF40041344802F0F4F870BD70B505
:1027C00004460D4624B91021314802F0EDF803E02B
:1027D00010212F4802F0E6F870BD70B504460D4692
:1027E0002CB94FF40071284802F0DEF804E04FF4F1
:1027F0000071254802F0D6F870BD70B504460D464C
:1028000024B92021214802F0CFF803E020211F48FD
:1028100002F0C8F870BD70B504460D4624B94021D9
:102820001A4802F0C1F803E04021184802F0BAF853
:1028300070BD70B504460D4624B90821144802F055
:10284000B3F803E00821124802F0ACF870BD70B58F
:1028500004460D468CB9174B0022114616480EF05F
:1028600060FE4FF48061084802F09EF810484078FE
:1028700020F018000E49487031E01FE000200240AF
:10288000900244420000444200180240000C024002
:1028900000040240A88241420080414200080240F8
:1028A00000140240CE010020901D0020E400002012
:1028B00084010020D0010020281D0020012C0ED111
:1028C000A102294802F06EF8284929480EF07DFD42
:1028D0002848407820F018000830264948702648DB
:1028E00090F8200064F3C300234981F8200070BDF4
:1028F00070B504460D468CB9204B00221146204885
:102900000EF00FFE4FF40061174802F04DF8194821
:10291000407820F060001749487010E0012C0ED17B
:10292000E102114802F03EF8144915480EF04DFD41
:102930001048407820F0600020300E4948700E4862
:1029400090F8200064F382000B4981F8200070BDEC
:1029500000F00102C0F340010A4B1A600A4BC3F8B1
:10296000AC1270477047000000180240D0010020F0
:10297000281D002084010020E4000020D201002056
:102980005C1D0020A8824142008041421CB501210B
:10299000882002F029FA00208DF8040001208DF82B
:1029A000070002208DF80500402000906946A648E7
:1029B00001F07CFF00208DF8040001208DF8070055
:1029C00002208DF80500C001009069469E4801F084
:1029D0006DFF00208DF8040001208DF80700022013
:1029E0008DF80500C00100906946984801F05EFF2F
:1029F00000208DF8040001208DF8070002208DF8DA
:102A00000500000200906946904801F04FFF002049
:102A10008DF8040001208DF8070002208DF80500D4
:102A2000C00200906946894801F040FF1CBD1CB5FA
:102A30000121402002F0D8F940F2FF100090002060
:102A40008DF8040001208DF8070003208DF80500A3
:102A500069467F4801F02AFF1CBD70B52DED068B3D
:102A60007B4801F08EFFC04305B2C5F30805284638
:102A7000FFF722FBC0F30804FF2C02DDA4F5007071
:102A800004B220460FF0B7FB41EC1A0B9FED710B1F
:102A900053EC102B0FF002FC41EC190B0FF06EFB06
:102AA00008EE100AB0EE480ABDEC068B70BD1FB5EB
:102AB0000121202002F0E1F940F24730ADF8040096
:102AC0000020ADF80600ADF80C008DF80E003120A6
:102AD000029001A9614802F0FCFD37208DF800004A
:102AE00002208DF8010000208DF8020001208DF8F1
:102AF0000300684601F0E9FD0121584803F09EFA01
:102B00000021564802F050FE0021544802F06AFEAF
:102B100001221146514803F07DFA1FBD00B585B072
:102B20000121802002F060F90121880302F0B6F94A
:102B300000208DF8100002208DF813008DF8110090
:102B40008020039003A9404801F0B0FE0721084609
:102B500002F0AFFA802004F0DEFC8020009001201B
:102B60008DF8060000208DF8040008208DF805007F
:102B7000684604F05FFC17208DF8080001208DF8EE
:102B80000B0000208DF809008DF80A0002A801F062
:102B90009CFDFFF78CFF05B000BD10B507F090FB62
:102BA000802004F0ADFC01280AD100202B492431FB
:102BB00008600121294802F015FE802004F0ABFCDA
:102BC00007F08FFB10BD10B507F07AFB01212348F9
:102BD00003F037FA012834D12148006840B1214878
:102BE0000068401C1F49086000201F49086007E07A
:102BF00000201C4908601C480068401C1A490860F5
:102C000018480068962810DD002001F0E3FA00F073
:102C10009EFC1648007820F00200801C13490870C2
:102C2000002013490860134908600F48006818B174
:102C300000210A4802F0D6FD4FF6FE700749103118
:102C4000088007F04EFB10BD001C0240000C024043
:102C500000180240000000000080E63F0014004021
:102C60001C824342D4010020D801002084010020AE
:102C7000A40100209C02444200B59DB00121BC4843
:102C800002F0B2F80121080202F008F9B94804F094
:102C9000EFF9002002908C20069000200590B648A5
:102CA0000490B648039000150890002007904FF458
:102CB00000600A900990C0100B904FF440300C90C7
:102CC00000200D9001200E9000200F90109002A97E
:102CD000A84804F06FFA38208DF8040001208DF820
:102CE000070003208DF8050000208DF8060001A8DC
:102CF00001F0EBFC012210219E4804F022FB01218F
:102D00009C4804F091FA73201B9003208DF870000A
:102D10008DF8710000208DF873001BA9984801F010
:102D2000C5FD03201B908DF870008DF87100002008
:102D30008DF873001BA9934801F0B8FD3F201B904C
:102D400003208DF870008DF8710000208DF873005D
:102D50001BA98D4801F0AAFD002011904FF44030CE
:102D60001290002013904FF47060149011A803F09B
:102D70008FFA0020159001208DF858008DF8590029
:102D800000201790189019900E208DF8680015A952
:102D90007A484C3803F04DFA072301220021774886
:102DA0004C3803F0CCFA07230222012173484C3837
:102DB00003F0C5FA07230322042170484C3803F0BE
:102DC000BEFA0723042205216C484C3803F0B7FAF9
:102DD00007230522062169484C3803F0B0FA07237F
:102DE0000622082165484C3803F0A9FA07231A4641
:102DF000092162484C3803F0A2FA072308220A216D
:102E00005E484C3803F09BFA072309220B215B48EC
:102E10004C3803F094FA07230A220C2157484C3807
:102E200003F08DFA07230B220D2154484C3803F090
:102E300086FA07230C220E2150484C3803F07FFA03
:102E400007230D220F214D484C3803F078FA072351
:102E50000E22112149484C3803F071FA012003F089
:102E60004CFA012145484C3803F014FB012143483A
:102E70004C3803F004FB012140484C3803F01FFAA2
:102E80003E484C3803F0B7FA1DB000BD10B5002025
:102E900055E00022002108E0C2EBC203364C04EBEF
:102EA000830333F810301944521C0A2AF4D30A233E
:102EB000B1FBF3F110B9354C21803FE0012802D17C
:102EC000324C61803AE0022802D1304CA18035E0DA
:102ED000032802D12D4CE18030E0042802D12B4C94
:102EE00021812BE0052802D1284C618126E00628AB
:102EF00002D1264CA18121E0072802D1234CE18197
:102F00001CE0082802D1214C218217E0092802D1B7
:102F10001E4C618212E00A2802D11C4CA1820DE0F5
:102F20000B2802D1194CE18208E00C2802D1174C81
:102F3000218303E00D2801D1144C6183401C0E282D
:102F4000A7D310BD10B507F0BBF91149094804F02B
:102F500015FA50B10F4B00224FF480710E4808F063
:102F600042FF0B49034804F033FA07F0BAF910BDE9
:102F70000100400010640240564100204C200140F6
:102F80000000024000040240000802406E4200209F
:102F900020800010DC010020A83F002000B58BB08D
:102FA00000220221874803F00DFF0121084601F0AD
:102FB0001BFF0121480601F060FF4FF400600990FB
:102FC00002208DF8280000208DF82A0001208DF8BD
:102FD0002B0002208DF8290009A97B4801F066FC2E
:102FE0004FF48050099002208DF8280000208DF8C1
:102FF0002A008DF82B0002208DF8290009A97248BB
:1030000001F054FC09220B216F4801F0DAFC09227F
:103010000C216D4801F0D5FC6A4803F031FB06A88D
:1030200003F052FC00208DF81B0005208DF81C00D9
:1030300006208DF81D00ADF8180000208DF81A004C
:1030400001208DF823008DF8210000208DF81E004E
:103050008DF8220001208DF81F008DF8200006A9B0
:10306000584803F026FB00BF06A9564803F021FB91
:103070000128F9D100208DF81200ADF810008DF86C
:10308000130001208DF814000020ADF80800ADF801
:103090000A00ADF80C00ADF80E0001208DF8150007
:1030A00002A803F090FB01220221464803F08AFEA9
:1030B00014208DF8040001208DF8050000208DF803
:1030C000060001208DF8070001A801F0FEFA012298
:1030D00010213C4803F076FE0BB000BD30B585B042
:1030E000002000900F20019004208DF8080000209F
:1030F0008DF8090007208DF80A0003208DF80B00D9
:10310000AA218DF80C1000218DF80D102F480178A0
:103110008DF80E1041788DF80F1081788DF8101011
:10312000C1788DF8111000250CE06946254803F0A0
:1031300039FC0446042C00D006E0C82000F054FFFF
:10314000681CC5B2032DF0DB00BF042C02D00120A7
:1031500005B030BD0020FBE71D48704710B507F0F3
:10316000AFF814211A480EF019FF194A002115482A
:1031700003F00DFD174B00222021174808F033FE05
:103180000221104803F021FF07F0ABF810BD1348EF
:10319000704710B507F094F8142110480EF0FEFEA9
:1031A0000E4A0121074803F0F2FC0D4B00222021BA
:1031B000094808F018FE1021024803F006FF07F046
:1031C00090F810BD0064004000000240780100202B
:1031D0008C420020DE010020A83F0020A0420020F9
:1031E000E001002000B58BB00121102001F0FCFDB2
:1031F0000121080401F052FE01208DF82800002072
:103200008DF82A008DF82B0002208DF8290010205F
:10321000099009A9F94801F049FB1021F74801F08C
:10322000C1FB01208DF8280000208DF82A008DF8C0
:103230002B0002208DF829002020099009A9EF48D1
:1032400001F034FB02208DF8280000208DF82A00C0
:103250008DF82B0003208DF829004020099009A942
:10326000E64801F023FB03220621E44801F0A9FB14
:10327000E34802F081F9A720ADF818000020ADF86E
:103280001A00ADF820008DF8220040F2E7300790D8
:1032900006A9DB4802F01DFA01A802F0D3FB0020CA
:1032A000ADF81400ADF80400ADF810000120ADF841
:1032B00006004FF4FA70039001A9D14802F0D7FA42
:1032C0000821CF4802F030FC0121CD4802F06CFA11
:1032D0000121CB4802F086FA18208DF80000022068
:1032E0008DF8010001208DF802008DF8030068467A
:1032F00001F0EBF900220421C14802F08BFE0BB073
:1033000000BD1FB50121022001F0B7FD40F247309A
:10331000ADF804000020ADF80600ADF80C008DF803
:103320000E0041F28730029001A9B64802F0D1F9AF
:103330001D208DF8000002208DF8010000208DF87E
:10334000020001208DF80300684601F0BEF901215A
:10335000AC4802F073FE0021AA4802F025FA0021D1
:10336000A84802F03FFA01221146A64802F052FE98
:103370001FBD0021F7EE040A70EE200AB0EE600ACD
:10338000FBEE040AB4EEE00AF1EE10FA00D219E006
:10339000F3EE040AB4EEE00AF1EE10FA01DD1021BA
:1033A00010E0FBEE040A70EE600A9FED971AC0EE83
:1033B000811AF3EE000A61EEA00AFCEEE00A10EEBC
:1033C000900AC1B2A1F10800C0B27047082802DB20
:1033D000B3EE040A704710F1080F02DCBBEE040ADA
:1033E000F8E700EE100AB8EEC00AF2EE000A30EE7E
:1033F000200AB3EE001AC0EE010AB0EE000A60EE39
:10340000800AB3EE041ABBEE040A00EE810AE1E77B
:1034100070B52DED028B04460D46B0EE408AFFF7E5
:103420001CFBF0EE408AB3EE040AF4EEC08AF1EE23
:1034300010FA04DD012C02D1BDEC028B70BDBBEE95
:10344000040AF4EEC08AF1EE10FA01D204B9F3E7EF
:10345000C5F57A6085B26A48C562681068498863B4
:10346000012C04D12021654801F09EFA04E01CB92A
:103470002021624801F096FA1021604801F094FA88
:103480005F48008B40F4C0405D4908835F4880ED91
:10349000008A5F480078022803D00020594924316F
:1034A00008600121574802F09DF95948047000BF97
:1034B000C2E770B52DED028B04460D46B0EE408A92
:1034C000FFF7CBFAF0EE408AB3EE040AF4EEC08ABE
:1034D000F1EE10FA04DD012C02D1BDEC028B70BDBF
:1034E000BBEE040AF4EEC08AF1EE10FA01D204B980
:1034F000F3E7012C04D12021404801F055FA04E003
:103500001CB920213D4801F04DFA10213B4801F043
:103510004BFA3B48008B40F4C040394908830846C9
:10352000808940F004008881384880ED008A38485E
:103530000078022803D0002032492431086001219C
:10354000304802F04FF93248047000BFC5E710B5AB
:103550002B48008B48F6FF7108402949088308462C
:1035600080894FF6FB710840254988811021234846
:1035700001F018FA0021234802F034F9022024490E
:10358000087000202349086010BD10B52DED068B92
:10359000FFF763FAB0EE408A64201E4908609FED91
:1035A0001E0A38EE400A10EE101A08460EF074FF9C
:1035B00041EC1A0BB0EE4A0AF0EE6A0A0EF0D4FDA6
:1035C000B0EE409AF0EE609A9FED140B53EC102B86
:1035D00051EC190B0EF026FE02D2BDEC068B10BD8D
:1035E000B5EEC08AF1EE10FA1CDD9FED0B0A40F635
:1035F000AC510020FFF75DFF1BE00000001002400F
:1036000000400140000400400000204288010020EA
:10361000E8010020E401002000000000000000009C
:103620000000F03F1FED040A40F6AC510120FFF707
:1036300040FF00BFD1E710B52DED048B06F040FE32
:1036400001213F4802F0FDFC01284BD1FFF705FAAC
:103650003C4880ED000A90ED000A3B48D0ED000A9E
:1036600030EE600A10EE101A08460EF015FF41EC1D
:10367000190BB0EE490AF0EE690A0EF075FDB0EED6
:10368000408AF0EE608A1FED1B0B53EC102B51ECBF
:10369000180B0EF0C7FD01D2FFF759FF294890ED36
:1036A000000AF3EE040AB4EEE00AF1EE10FA05DDCA
:1036B00026480078012801D1FFF749FF214890ED05
:1036C000000AFBEE040AB4EEE00AF1EE10FA04D2AE
:1036D0001E48007808B9FFF73AFF4FF6FE70184908
:1036E0001031088006F0FDFDBDEC048B10BD10B557
:1036F00006F0E6FD0421164802F0A3FCE8B11548E7
:10370000006840F2DF5188420ED21348114909681F
:1037100030F811000E49C8620F480E49096830F8A8
:10372000110040100A4988630A480068801C094952
:1037300008600421064802F095FC06F0D2FD10BD99
:1037400000040040EC01002088010020E801002076
:1037500000400140E40100209C25010810B596B00E
:1037600004460121C14801F03FFB0121880401F01A
:1037700084FB27208DF8440000208DF846000120AE
:103780008DF8470011A800F0A0FF0C208DF8440030
:1037900001208DF8450000208DF8460001208DF8AD
:1037A000470011A800F091FF0E208DF84400012081
:1037B0008DF8450000208DF8460001208DF8470067
:1037C00011A800F082FF4FF480600F9002208DF866
:1037D000400003208DF8410000208DF842000120B8
:1037E0008DF843000FA9A24801F060F84FF4006083
:1037F0000F9002208DF8400003208DF8410000203A
:103800008DF8420001208DF843000FA9984801F07F
:103810004DF807220A21964801F0D3F807220B2120
:10382000934801F0CEF812940020ADF84C00ADF8AA
:103830004E00ADF85000ADF854000C20ADF8520029
:1038400012A98C4801F0D5FC8B4803F011FC4FF015
:10385000006000908748001D019088480290002079
:10386000039014200490002005904FF4806006908F
:1038700000200790089009904FF440300A900020F3
:103880000B9001200C9000200D900E9069467A4814
:1038900003F090FC0121784803F0C6FC76483030F4
:1038A00003F0E6FB4FF0006000907248001D0190AD
:1038B00073480290402003908020049000200590DF
:1038C0004FF48060069000200790089009904FF414
:1038D00040300A9000200B9001200C9000200D90A9
:1038E0000E9069466448303003F064FC0021624861
:1038F000303003F099FC012210215F48303003F092
:1039000020FD012240F224415A4801F0B0FD00227E
:1039100040F22551574801F0AAFD002240F22771DC
:10392000544801F0A4FD01228021524801F096FD87
:10393000012240214F4801F091FD40214D4801F006
:10394000BBFD01214B4801F0DCFC16B010BD4D4819
:10395000704770B5044620460EF09AFA05B200BFD3
:10396000494800780028FBD00020474908702A46C3
:10397000214643480EF0ABFA41483F492839486692
:103980000846C56501213C48303003F04DFC70BD50
:1039900070B5054628460EF07BFA06B2002400BF3B
:1039A0000BE000BF3348008800F040000028F9D049
:1039B000285D3049091D0880641CB442F1DB70BDEC
:1039C00010B506F07DFC40F224412A4801F08AFD42
:1039D00078B340F22441274801F0BFFD254801F0AB
:1039E000BFFC0021244803F01FFC2849224803F0B3
:1039F00094FC21482838C06AC0F1140000B21F4965
:103A0000888214221F480EF062FA214B0022022104
:103A1000204808F0E8F9162118480EF09DFA1748DA
:103A20001549283948631420C8620121124803F05F
:103A3000FBFB06F056FC10BD10B506F041FC164924
:103A40000D48303003F09AFC01280CD100210A48BF
:103A5000303003F0E9FB10490748303003F0B8FC80
:103A600001200949087006F03CFC10BD020020004E
:103A7000000402400048004028600240CA42002082
:103A8000B4420020E0420020F001002000080010B5
:103A9000F2010020A83F002000800018C4487047B1
:103AA000C448704710B596B004460121C24801F0E1
:103AB0009BF90121C80401F0E0F934208DF844009D
:103AC00002208DF8450000208DF8460001208DF879
:103AD000470011A800F0F9FD0D208DF844000220E8
:103AE0008DF845008DF8460001208DF8470011A89B
:103AF00000F0EBFD0F208DF8440002208DF845000A
:103B000003208DF8460001208DF8470011A800F031
:103B1000DCFD4FF480600F9002208DF840008DF89E
:103B2000410000208DF8420001208DF843000FA9CC
:103B3000A24800F0BBFE4FF400600F9002208DF809
:103B400040008DF8410000208DF8420001208DF8E2
:103B500043000FA9994800F0A9FE08220A219748BE
:103B600000F02FFF08220B21944800F02AFF129446
:103B70000020ADF84C00ADF84E00ADF85000ADF8A7
:103B800054000C20ADF8520012A98D4801F031FB11
:103B90008C4803F06DFA4FF0006000908848001DDB
:103BA0000190894802900020039008200490002092
:103BB00005904FF4806006900020079008900990CF
:103BC0004FF440300A9000200B9001200C90002010
:103BD0000D900E9069467B4803F0ECFA012179487C
:103BE00003F022FB7748303003F042FA4FF00060D8
:103BF00000907348001D019074480290402003908B
:103C000008200490002005904FF48060069000206A
:103C10000790089009904FF440300A9000200B90D4
:103C200001200C9000200D900E90694665483030C0
:103C300003F0C0FA00216348303003F0F5FA0122A6
:103C400010216048303003F07CFB012240F2244117
:103C50005B4801F00CFC002240F22551584801F06D
:103C600006FC002240F22771554801F000FC0122B9
:103C70008021534801F0F2FB01224021504801F01D
:103C8000EDFB40214E4801F017FC01214C4801F0AA
:103C900038FB16B010BD70B5044620460EF0F8F89B
:103CA00005B200BF4A4800780028FBD000204849F0
:103CB00008702A46214645480EF009F94348414913
:103CC0004039C8670846456701213E48303003F057
:103CD000ABFA70BD10B506F0F3FA40F22441384853
:103CE00001F000FC002845D040F22441344801F0A6
:103CF00034FC334801F034FB0021324803F094FADD
:103D00004FF081512F4803F008FB2F4880785A2844
:103D100011D127482C490A680260496841602A4845
:103D200000210160416001812A4B002208212A48BC
:103D300008F059F814E024488078A52810D11D48CF
:103D400021490A680260496841601F4800210160FA
:103D5000416001811F4B002210211F4808F043F8E9
:103D6000194818494039C864082048640121154899
:103D700003F05AFA06F0B5FA10BD10B506F0A0FA35
:103D800016491048303003F0F9FA01280CD100210F
:103D90000C48303003F048FA10490A48303003F03C
:103DA00017FB01200A49087006F09BFA10BD0000BD
:103DB0000A430020144300200400200000080240B1
:103DC000004C00404060024000430020F6420020CA
:103DD000F4010020F6010020A83F002020800020F0
:103DE00000B585B00121080701F047F8012003F074
:103DF000A6FB002004F0FAF94AF2A201884246D05C
:103E0000012000F08EFE00BF412000F043FE00289C
:103E1000FAD04FF4807000F085FF012000F09DFF84
:103E200003F026FC7F200390FF20049000200290E6
:103E300002A803F0E4FC6B4800788DF8070069489D
:103E400040788DF80500674880788DF80600654851
:103E5000C0788DF8040001A9012003F009FE0020BC
:103E60008DF803005F4800798DF800005D484079C7
:103E70008DF801005B4880798DF8020069460120C9
:103E800003F058FD4AF2A201002004F0A2F905B0A7
:103E900000BD70B588B006460C46154600214FF4AB
:103EA000807003F025FF8DF800608DF801408DF8DB
:103EB000025000208DF8030001208DF810008007CB
:103EC0000390400002900098019001AA4FF4807185
:103ED000002003F056FE4FF4805004F06CFA4FF4CB
:103EE000003003F018FB0121080304F0F5F901216B
:103EF000080203F0FDFE4FF40030059000208DF81D
:103F0000180008208DF8190001208DF81A0005A866
:103F100003F090FA29208DF81C0002208DF81D0076
:103F20008DF81E0001208DF81F0007A800F0CDFBC2
:103F300008B070BD3EB505460C46002003F05DFF9D
:103F4000284603F035FF204603F047FF4FF480403A
:103F500004F031FA4FF4800003F0DDFA0121880308
:103F600004F0BAF9012003F048FF4FF480000090FC
:103F700000208DF8040008208DF8050001208DF840
:103F80000600684603F056FA03208DF80800022068
:103F90008DF809008DF80A0001208DF80B0002A8A9
:103FA00000F093FB3EBD10B54FF4807004F0C3F9F0
:103FB000012802D1000204F0CFF94FF4003003F0E1
:103FC000AAFA10BD10B54FF4806004F0B4F90128CE
:103FD00002D1800204F0C0F94FF4800003F09BFA94
:103FE00010BD0000F80100203221484300BF011E2F
:103FF000A0F10100FBD170474CF25031484300BFA3
:10400000011EA0F10100FBD170470346012070475B
:104010002DE9F04186B006460D4617464FF00008E0
:1040200040F201100190002002908DF80C008DF8F4
:104030000D0008208DF80E0000208DF80F008DF87F
:10404000106029128DF811108DF8125000218DF892
:1040500013108DF814708DF815108DF8161000BF20
:104060000EE001A9C04802F09DFC0446042C00D0DB
:1040700009E0C820FFF7B8FF08F1010000F0FF08D1
:10408000B8F1030FEDDB00BF042C03D0012006B014
:10409000BDE8F0810020FAE72DE9F04385B007463E
:1040A0000D4690461E4640F20160009000200190AF
:1040B0008DF808008DF8090008208DF80A008DF8A9
:1040C0000B70E9B28DF80C10290A8DF80D108DF8DF
:1040D0000E80F1B28DF80F10310A8DF8101000210A
:1040E0008DF811108DF812104FF000090EE069469E
:1040F0009D4802F057FC0446042C00D009E0C8207B
:10410000FFF772FF09F1010000F0FF09B9F1030F99
:10411000EDDB00BF042C03D0012005B0BDE8F08327
:104120000020FAE770B586B00546002640F201602F
:104130000190002002908DF80C008DF80D000820F1
:104140008DF80E002B208DF80F0042218DF81010F5
:1041500060218DF8111000218DF812108DF8135088
:10416000290A8DF8141000218DF815108DF81610FD
:1041700000BF0CE001A97C4802F014FC0446042CAA
:1041800000D006E00120FFF737FF701CC6B2032EF7
:10419000F0DB00BF042C02D0012006B070BD00206F
:1041A000FBE710B504463CB10F23002246F2400164
:1041B0002B20FFF771FF10BD8623002246F240013D
:1041C0002B20FFF769FFF6E710B504462046FFF7FE
:1041D000E8FF10BD10B50446201E01DB014600E0DB
:1041E000414247F23052914201DD002010BD002CC7
:1041F0000CDD64205D4908605D49086003205D496D
:10420000087000210846FEF77DFA1EE0002C0CDA4B
:1042100064205649086056490860042055490870D2
:1042200000210846FEF76EFA0FE0002050490860B2
:104230004E4908604F480078022803D00021012031
:10424000FEF760FA02204B4908704B480078C0F333
:10425000001050B94CB10120FFF7B6FF4648007876
:1042600020F010001030444908702046FFF75AFF34
:104270004248C4830120B9E710B50446002C42D15E
:104280004FF47A70FFF7B8FE00203D4908604FF404
:104290007A70FFF7B1FE00203A49C1F894024FF45A
:1042A0007A70FFF7A9FE00203549083108604FF405
:1042B0007A70FFF7A1FE00203249C1F89C024FF44A
:1042C0007A70FFF799FE01202D490C3108604FF4F8
:1042D0007A70FFF791FE01202A49C1F898024FF445
:1042E0007A70FFF789FE01202649C1F894024FF445
:1042F0007A70FFF781FE01202249C1F890024FF445
:104300007A70FFF779FE0223002246F260012B202B
:10431000FFF7C2FE0120FFF76FFE0623002246F2E0
:1043200040012B20FFF7B8FE0120FFF765FE0723B1
:10433000002246F240012B20FFF7AEFE0120FFF7DE
:104340005BFE0F23002246F240012B20FFF7A4FE64
:104350000120FFF751FE012010BD10B50446204694
:10436000FFF78AFF10BD0000006400409C010020A0
:10437000A0010020FF01002084010020E4000020B3
:104380009002444200004442B148704710B596B0D4
:1043900004460121AF4800F027FD0121480400F048
:1043A0006CFD26208DF8440000208DF84600012089
:1043B0008DF8470011A800F088F910208DF844000E
:1043C00000208DF8460001208DF8470011A800F06C
:1043D0007CF911208DF8440000208DF84600012062
:1043E0008DF8470011A800F070F904200F9002200A
:1043F0008DF840008DF8410000208DF8420001202A
:104400008DF843000FA9944800F050FA08200F904F
:1044100002208DF840008DF8410000208DF8420008
:1044200001208DF843000FA98B4800F03FFA0722C6
:104430000221894800F0C5FA07220321864800F0CE
:10444000C0FA12940020ADF84C00ADF84E00ADF863
:104450005000ADF854000C20ADF8520012A97F486E
:1044600000F0C7FE7E4802F003FE4FF000600090AF
:104470007A48001D01907B48029000200390802024
:104480000490002005904FF4806006900020079073
:10449000089009904FF440300A9000200B900120C2
:1044A0000C9000200D900E9069466D4802F082FE3F
:1044B00001216B4802F0B8FE6948183002F0D8FDBF
:1044C0004FF0006000906548001D01906648029022
:1044D0004020039080200490002005904FF48060DD
:1044E000069000200790089009904FF440300A9001
:1044F00000200B9001200C9000200D900E9069463A
:104500005748183002F056FE01215548183002F085
:104510008BFE012210215248183002F012FF0122B6
:1045200040F224414D4800F0A2FF002240F2255104
:104530004A4800F09CFF002240F22771474800F0F3
:1045400096FF01228021454800F088FF012240218A
:10455000424800F083FF4021404800F0ADFF0121B8
:104560003E4800F0CEFE16B010BD70B504462046A1
:104570000DF08EFC05B200BF3C4800780028FBD04F
:1045800000203A4908702A46214637480DF09FFC22
:10459000354833492431086031488838C0F8A45080
:1045A00001212F48183002F03FFE70BD10B505F014
:1045B00087FE40F22441294800F094FF58B340F2AE
:1045C0002441264800F0C9FF244800F0C9FE00211C
:1045D000234802F029FE2649214802F09EFE1022BF
:1045E00020491B480DF073FC10211E480DF0B4FC4F
:1045F000204B00228021204807F0F5FB194818497C
:104600000C310860102016498839C1F88C0001214E
:10461000134802F009FE05F064FE10BD10B505F068
:104620004FFE16490E48183002F0A8FE01280CD1A2
:1046300000210B48183802F0F7FD104908481830DF
:1046400002F0C6FE01200949087005F04AFE10BDBF
:1046500042430020050020000000024000440040CA
:1046600088600240304300201E43002000020020EA
:104670000008002002020020A83F00200080202027
:104680000948804709480047FEE7FEE7FEE7FEE7E6
:10469000FEE7FEE7FEE7FEE7FEE7FEE70448054922
:1046A000054A064B70470000FD0900088901000813
:1046B00040B4002040BE002040B6002040B600209C
:1046C00032490143324A1160704770B5002100231E
:1046D0000F22C4781CB32E4C246804F4E064C4F5A3
:1046E000E064C4F30721C1F10404E3B20A41447851
:1046F0009C40E1B28478144021430C07210E254CE4
:1047000005786155047804F01F050124AC40057854
:104710006D11AD0005F1E025C5F8004109E0047810
:1047200004F01F050124AC401B4D0678761145F8B6
:10473000264070BD194A0A400243154B1B1F1A60E0
:10474000704739B1124A121D12680243104B1B1DEB
:104750001A6006E00E4A121D126882430C4B1B1DA4
:104760001A607047042808D14FF0E021096941F030
:1047700004014FF0E022116107E04FF0E0210969E8
:1047800021F004014FF0E022116170470000FA05AA
:104790000CED00E000E400E080E100E080FFFF1F9E
:1047A00010B504469848844208D10121084600F01B
:1047B00086FB0021012000F082FB76E093488442D2
:1047C00008D10121022000F07AFB0021022000F034
:1047D00076FB6AE08E48844208D10121042000F073
:1047E0006EFB0021042000F06AFB5EE089488442F1
:1047F00008D10121082000F062FB0021082000F010
:104800005EFB52E08448844208D10121102000F070
:1048100056FB0021102000F052FB46E07F48844206
:1048200008D10121202000F04AFB0021202000F0C7
:1048300046FB3AE07A48844208D10121402000F04A
:104840003EFB0021402000F03AFB2EE075488442F8
:1048500008D10121802000F032FB0021802000F0EF
:104860002EFB22E07048844208D10121801500F01F
:1048700026FB0021A01500F022FB16E06B488442C5
:1048800008D10121401500F01AFB0021601500F04D
:1048900016FB0AE06648844207D10121001500F0AA
:1048A0000EFB0021201500F00AFB10BDF0B50A46F2
:1048B00000210023002400BF3DE0012505FA01F39B
:1048C000156805EA03049C4234D105684F000326AD
:1048D000BE40B543056015794E00B54006683543C6
:1048E00005601579012D02D01579022D16D1856844
:1048F0004F000326BE40B543856055794E00B54054
:10490000866835438560456801268E40B54345601D
:10491000456896798E40B6B235434560C5684F000C
:104920000326BE40B543C560D5794E00B540C66884
:104930003543C560491C1029BFD3F0BD4FF6FF7148
:1049400001600021017141718171C171704708B529
:104950004FF480320092009A0A430092009AC2619A
:10496000C161009AC261C2690092C269009208BD29
:104970000246002013690B400BB1012000E000202B
:1049800070470146086980B27047024600205369AB
:104990000B400BB1012000E0002070470146486940
:1049A00080B2704701837047418370470AB1018329
:1049B00000E0418370474161704742694A4042616B
:1049C0007047F0B5002300244D07ED0E02FA05F301
:1049D000CE1000F1200555F826504E07F70E0F2691
:1049E000BE40B543CF1000F1200646F82750CE1048
:1049F00000F1200555F8265045EA0304CE1000F1D9
:104A0000200545F82640F0BD0000024000040240A9
:104A100000080240000C0240001002400014024056
:104A200000180240001C0240002002400024024006
:104A300000280240F948006840F00100F74908608A
:104A40000020F64908310860F4480068F44908403D
:104A5000F2490860F348091D0860F348EF498431C2
:104A60000860F0481038091D0860EC48006820F420
:104A70008020EA4908600020E8490C310860E749D5
:104A80008C31086070470021E44A921C1170114675
:104A90000870704710B501460022002300204A111B
:104AA000012A02D1DD4C236808E0022A03D1DB4C45
:104AB0007034236802E0D94C7434236801F01F027B
:104AC000012494401C400CB1012000E0002010BDE6
:104AD00038B5002000900024002500BF3120FFF7EA
:104AE000D9FF05460098401C00900098B0F5A04FF3
:104AF00001D0002DF2D03120FFF7CCFF08B1012406
:104B000000E00024204638BD01460020C34A10685A
:104B100020F0F80040EAC10010607047C349086007
:104B200070470021BD4A703211701170012802D007
:104B300004280AD104E00121B84A7032117005E05E
:104B40000521B64A7032117000E000BF00BF704707
:104B5000B7490860704770B5049C41EA8215012688
:104B6000C6EB530645EA0645054345EA0465AB4EE8
:104B7000361D356070BDAD4908667047820142EA56
:104B80000172A64B84331A607047A8498866704743
:104B900010B5830143EA016343EA02739F4C8834F2
:104BA000236010BDA14908677047A049C8647047D9
:104BB00002460020994B0833186820F0EC6042EA66
:104BC00001031843954B08331860704702460020D4
:104BD000924B0833186820F0784042EA01031843EA
:104BE0008E4B083318607047014600208B4A08320C
:104BF000106820F0030008431060704787480830B1
:104C0000006800F00C00704701460020834A08321B
:104C1000106820F0F0000843106070470146002043
:104C20007E4A0832106820F4E05008431060704754
:104C300001460020794A0832106820F4604040EABA
:104C4000C10010607047F0B5002100220024022549
:104C500000260223714F08373F6807F00C0121B18D
:104C6000042905D0082937D105E0724F076036E0E6
:104C7000714F076033E0694F3F1D3F68C7F38056AF
:104C8000664F3F1D3F6807F03F036EB16A4FB7FBA9
:104C9000F3F7DFF888C10CF1040CDCF800C0CCF3AA
:104CA000881C07FB0CF40CE0624FB7FBF3F7DFF84E
:104CB0006CC10CF1040CDCF800C0CCF3881C07FBC1
:104CC0000CF4564F3F1D3F68C7F301477F1C7D0022
:104CD000B4FBF5F7076002E0564F076000BF00BF66
:104CE0004E4F08373F6807F0F0010909534F7A5CCF
:104CF0000768D7404760494F08373F6807F4E051DD
:104D0000890A4E4F7A5C4768D7408760434F08371F
:104D10003F6807F46041490B484F7A5C4768D740C9
:104D2000C760F0BD002100F44072B2F5407F0AD1A7
:104D30003A4A0832116821F4F811414A02401143FD
:104D4000364A08321160354A70321268C0F30B03DC
:104D50001A43324B70331A60704735494439086042
:104D600070473349403908607047364908607047DA
:104D700001460020294A8C32106820F44010084374
:104D80001060704701460020244A8C32106820F4DD
:104D90004000084310607047014600201F4A8C32D3
:104DA000106820F01F004A1E10431C4A8C3210600D
:104DB000704701460020194A8C32106820F4F850E0
:104DC0004A1E40EA0220154A8C32106070470146A4
:104DD0000020124A8C32106820F4403008431060E2
:104DE000704719490860704739B10C4A303212686F
:104DF00002430A4B30331A6006E0084A3032126828
:104E00008243064B30331A607047F9B1034A34329B
:104E100012680243014B34331A601CE00038024030
:104E2000FFFFF6EA10300024003000200000474267
:104E3000800E47420024F40000127A000402002091
:104E4000FFFCFF0F5C014742E01147428F4A1268A6
:104E500082438E4B1A60704739B18C4A121D12681A
:104E600002438A4B1B1D1A6006E0884A121D126815
:104E70008243864B1B1D1A60704739B1834A0C323E
:104E800012680243814B0C331A6006E07F4A0C32F1
:104E9000126882437D4B0C331A60704739B17B4AEC
:104EA000103212680243794B10331A6006E0774AD9
:104EB000103212688243754B10331A60704739B153
:104EC000724A243A12680243704B243B1A6006E08F
:104ED0006E4A243A126882436C4B243B1A60704736
:104EE00039B16A4A203A12680243684B203B1A6083
:104EF00006E0664A203A12688243644B203B1A60FF
:104F0000704739B1614A1C3A126802435F4B1C3B3F
:104F10001A6006E05D4A1C3A126882435B4B1C3BF8
:104F20001A60704739B1594A143A12680243574B14
:104F3000143B1A6006E0554A143A12688243534BF8
:104F4000143B1A60704739B1504A103A1268024354
:104F50004E4B103B1A6006E04C4A103A12688243EE
:104F60004A4B103B1A60704739B1484A1C321268EC
:104F70000243464B1C331A6006E0444A1C32126856
:104F80008243424B1C331A60704739B13F4A20328A
:104F9000126802433D4B20331A6006E03B4A203240
:104FA00012688243394B20331A60704739B1374A4F
:104FB000243212680243354B24331A6006E0334A28
:104FC000243212688243314B24331A60704739B15E
:104FD0002E4A2C32126802432C4B2C331A6006E006
:104FE0002A4A2C3212688243284B2C331A607047AD
:104FF00039B1264A303212680243244B30331A60EA
:1050000006E0224A303212688243204B30331A6065
:105010007047012808D11D493C31096841F0080159
:105020001A4A3C32116007E018493C31096821F006
:105030000801164A3C321160704739B1134A273AC9
:1050400012780243114B273B1A7006E00F4A273AA9
:10505000127882430D4B273B1A7070470B48403043
:10506000006840F08070094940310860704701468F
:105070000020064A283A12680A400AB1012000E0DE
:1050800000207047014926390870704734380240C3
:1050900010B501218803FFF756FF00214FF480402F
:1050A000FFF751FF10BD1C49086070471B4908629B
:1050B000704730B500228B071C0F0F2303FA04F250
:1050C000154B08338C1053F824309343124C08349A
:1050D0008D1044F8253023468C1053F824308C076B
:1050E000240F00FA04F423430B4C08348D1044F8C9
:1050F000253030BD0949DC31086070470849086037
:105100007047002004492031096801F4807109B119
:10511000012000E0002070470038014000002742D5
:105120000004274210B50446FA48844208D1012100
:105130001020FFF708FF00211020FFF704FF57E0C1
:10514000F548844209D101214804FFF7EBFE002114
:105150004FF40030FFF7E6FE4AE0F048844209D100
:1051600001218804FFF7DEFE00214FF48020FFF7C5
:10517000D9FE3DE0EA48844209D10121C804FFF785
:10518000D1FE00214FF40020FFF7CCFE30E0E548CF
:10519000844209D101210805FFF7C4FE00214FF424
:1051A0008010FFF7BFFE23E0DF48844208D10121D1
:1051B0002020FFF7C8FE00212020FFF7C4FE17E0E3
:1051C000DA48844209D101218807FFF7ABFE0021AC
:1051D0004FF08040FFF7A6FE0AE0D548844207D191
:1051E00001214005FFF79EFE00216005FFF79AFEB2
:1051F00010BD2DE9FF4705460E460024A14600BF1D
:10520000A046B08900B100BF2C8A24F44054F08835
:1052100004432C82AC8941F20C608443B08831890C
:105220000843718908430443AC81AC8A24F4407478
:10523000B0890443AC826846FFF705FDB548854256
:1052400002D0B948854202D1DDF80C9001E0DDF8CA
:105250000890A88900F4004040B109EBC90000EBB8
:10526000091031684900B0FBF1F707E009EBC9000C
:1052700000EB091031688900B0FBF1F76420B7FB3F
:10528000F0F004012009642101FB1078A88900F4E2
:10529000004040B1322000EBC800B0FBF1F000F05C
:1052A0000700044308E0322000EB08106421B0FB43
:1052B000F1F000F00F0004432C81BDE8FF874FF4AC
:1052C0001651016000218180C18001810C21418142
:1052D00000218181704710B502460020108A20F419
:1052E00070600B884C8823438C882343CC882343ED
:1052F0001843108210BD0021018041808180C1804F
:10530000704721B1828942F40052828104E082898F
:105310004DF6FF731A4082817047028B02F47F4280
:105320000283028B0A430283704721B1828942F4CF
:105330000042828103E08289C2F30E0282817047BB
:1053400021B1828A42F40062828204E0828A4FF2B2
:10535000FF731A4082827047C1F30802828070474F
:1053600001468888C0F308007047028A4FF6F07340
:105370001A400282028A0A430282704721B182895E
:1053800042F00202828104E082894FF6FD731A40E6
:105390008281704782894FF2FF731A40828182892D
:1053A0000A4382817047028A4FF6DF731A400282F5
:1053B000028A0A430282704721B1028A42F4804283
:1053C000028204E0028A4BF6FF731A4002827047A1
:1053D000818941F001018181704721B1828A42F0C7
:1053E0000802828204E0828A4FF6F7731A408282B2
:1053F0007047028BD2B20283028B42EA01220283FF
:10540000704721B1828A42F02002828204E0828ABF
:105410004FF6DF731A408282704721B1828A42F0D0
:105420001002828204E0828A4FF6EF731A40828271
:105430007047828A4FF6FB731A408282828A0A433F
:105440008282704721B1828A42F00202828204E0A5
:10545000828A4FF6FD731A40828270471AB1838A9E
:105460000B43838202E0838A8B4383827047F0B5CB
:105470000346002400260025002040F66A17B942A2
:1054800000D100BF1846C1F3421401F01F060127E6
:1054900007FA06F5012C01D10C3004E0022C01D1F1
:1054A000103000E014301AB107682F43076002E0A3
:1054B0000768AF430760F0BD02460020B1F5007FEA
:1054C00000D100BF13880B400BB1012000E0002089
:1054D000704701F40072B2F5007F00D100BFCA43EB
:1054E0000280704770B5024600240023002500208A
:1054F00040F66A16B14200D100BFC1F3421501F077
:105500001F03012606FA03F3012D13D196893340B8
:1055100017E0000000100140004400400048004037
:10552000004C004000500040001401400078004052
:10553000007C0040022D02D1168A334001E0968A99
:1055400033400C12012606FA04F41688344013B1D5
:105550000CB1012000E0002070BD10B50022002336
:1055600040F66A14A14200D100BF0A1201249440FF
:10557000A3B2DC43048010BD10B50446FE4884424B
:1055800008D101210846FFF7DEFC00210120FFF7CA
:10559000DAFC9DE0B4F1804F08D101210846FFF705
:1055A000C1FC00210120FFF7BDFC91E0F3488442DB
:1055B00008D101210220FFF7B5FC00210220FFF7EE
:1055C000B1FC85E0EE48844208D101210420FFF7B8
:1055D000A9FC00210420FFF7A5FC79E0E9488442FA
:1055E00008D101210820FFF79DFC00210820FFF7CA
:1055F00099FC6DE0E448844208D101211020FFF7B6
:1056000091FC00211020FFF78DFC61E0DF4884420F
:1056100008D101212020FFF785FC00212020FFF781
:1056200081FC55E0DA48844208D101210220FFF7CD
:105630008AFC00210220FFF786FC49E0D54884421D
:1056400009D101210804FFF77EFC00214FF48030CE
:10565000FFF779FC3CE0D048844209D1012148049D
:10566000FFF771FC00214FF40030FFF76CFC2FE0D6
:10567000CA48844209D101218804FFF764FC002153
:105680004FF48020FFF75FFC22E0C548844208D138
:1056900001214020FFF746FC00214020FFF742FC9B
:1056A00016E0C048844208D101218020FFF73AFC6F
:1056B00000218020FFF736FC0AE0BB48844207D176
:1056C00001218015FFF72EFC0021A015FFF72AFC11
:1056D00010BD00220288A84B98420ED0AC4B9842D5
:1056E0000BD0B0F1804F08D0A44B984205D0A44B0A
:1056F000984202D0A34B984204D14FF68F731A40C0
:105700004B881A43A04B984207D0A04B984204D034
:105710004FF6FF431A400B891A4302804B68C3625D
:105720000B880385944B984202D0994B984201D143
:105730008B7A03860123838270474FF0FF314160EB
:105740000021018001814180817270470185828240
:1057500070470A46002101884FF68F7319401143A4
:105760000180704741627047C16270470146486AD4
:1057700070470146088D704721B1028842F002024D
:10578000028004E002884FF6FD731A4002807047E1
:1057900021B1028842F00402028004E002884FF640
:1057A000FB731A400280704721B1028842F08002E8
:1057B000028004E002884FF67F731A40028070472F
:1057C00002884FF6F7731A40028002880A4302806B
:1057D000704702884FF6FF431A40028002880A434E
:1057E0000280704721B1028842F00102028004E089
:1057F00002884FF6FE731A400280704770B500248D
:1058000000220023058C4FF6FE7635400584028C7D
:105810008388048B4FF68F752C40B51E2C400D8865
:105820002C43751E2A408D892A434D882A43524DA8
:10583000A84202D0564DA84213D14FF6F7752A4020
:10584000CD892A434FF6FB752A408D882A434FF6AF
:10585000FF652B404FF6FF552B400D8A2B434D8A99
:105860002B43838004838D684563028470BD70B5CB
:10587000002400220023058C4FF6EF763540058486
:10588000028C8388048B48F6FF752C404FF6FF4549
:105890002C400D884FF6FF7606EA05252C434FF67F
:1058A000DF752A408D8906EA05152A434D8806EAE8
:1058B00005152A43304DA84202D0354DA8421DD1CE
:1058C0004FF67F752A40CD894FF6FF7606EA05151B
:1058D0002A434FF6BF752A408D8806EA05152A43EC
:1058E0004FF6FF352B404FF2FF752B400D8A06EA2D
:1058F00085052B434D8A06EA85052B438380048367
:105900008D688563028470BD70B500240022002379
:10591000058C4FF6FF6635400584028C8388848BA6
:105920004FF68F752C404FF6FC752C400D882C439C
:105930004FF6FF552A408D894FF6FF7606EA05257A
:105940002A434D8806EA05252A430B4DA84202D07A
:105950000F4DA84238D14FF2FF752A40CD894FF63E
:10596000FF7606EA05252A434FF6FF352A408D8843
:1059700006EA05252A4319E0000001400004004022
:1059800000080040000C00400010004000140040DF
:105990000004014000400140004401400048014033
:1059A00000180040001C0040002000404EF6FF752B
:1059B0002B404DF6FF752B400D8A06EA05152B434B
:1059C0004D8A06EA05152B43838084838D68C56361
:1059D000028470BD70B5002200230024058C4EF6B1
:1059E000FF7635400584038C8488828B48F6FF75EA
:1059F0002A404FF6FF452A400D884FF6FF7606EA0B
:105A000005252A434DF6FF752B408D8906EA05359D
:105A10002B434D8806EA05352B43FE4DA84202D0A4
:105A2000FD4DA84208D14BF6FF752C400D8A4FF66C
:105A3000FF7606EA85152C43848082838D68056491
:105A4000038470BD0021018041808180816081815B
:105A5000C18101824182704770B503460020002455
:105A60001846183001258D40ACB21D8CA5431D840D
:105A700009B108290AD100EB610005684FF68F765D
:105A8000354005600568154305600FE00D1FC5F33F
:105A90004E052844056848F6FF76354005600568E0
:105AA0004FF6FF7606EA02263543056070BD416376
:105AB000704781637047C1637047016470470A464D
:105AC0000021018B4FF68F731940114301837047FA
:105AD0000A460021018B48F6FF7319404FF6FF7309
