:020000040800F2
:10000000E0F40120AD2E00082D0600082F060008A0
:100010004B06000867060008830600080000000081
:100020000000000000000000000000009F06000823
:10003000A10600080000000023110108C572000895
:10004000C72E0008C72E0008C72E0008C72E0008BC
:10005000C72E0008C72E0008C72E0008C72E0008AC
:10006000C72E0008C72E0008C72E0008C72E00089C
:10007000C72E0008C72E00082F250008B92A00083F
:10008000C72E0008ED2A0008C72E0008C72E00085A
:10009000EB1E0008191F0008C72E0008AD19000844
:1000A000C72E0008C72E0008C72E0008C72E00085C
:1000B000C72E0008F3210008C72E0008C72E00082D
:1000C000C72E0008C72E0008C72E0008C72E00083C
:1000D000C72E0008C72E0008592A0008CD240008A2
:1000E000C72E00080F2D0008C72E0008C72E0008D5
:1000F000C72E0008C72E0008C72E0008A11100084F
:10010000C72E0008C72E0008C72E0008C72E0008FB
:10011000FF2900083F110008C72E0008C72E00085D
:10012000191D0008C72E0008C72E0008C72E00089A
:10013000C72E0008C72E0008C72E0008C72E0008CB
:10014000C72E0008C72E0008C72E0008C72E0008BB
:10015000C72E0008C72E0008C72E0008C72E0008AB
:10016000C72E0008C72E0008C72E0008C72E00089B
:10017000C72E0008C72E0008C72E0008C72E00088B
:10018000C72E0008C72E000800F002F800F05CF847
:100190000AA090E8000C82448344AAF10107DA45E2
:1001A00001D100F051F8AFF2090EBAE80F0013F0D8
:1001B000010F18BFFB1A43F001031847E4170100B1
:1001C000041801000A444FF0000C10F8013B13F032
:1001D000070408BF10F8014B1D1108BF10F8015BA0
:1001E000641E05D010F8016B641E01F8016BF9D193
:1001F00013F0080F1EBF10F8014BAD1C0C1B09D1EA
:100200006D1E58BF01F801CBFAD505E014F8016B5B
:1002100001F8016B6D1EF9D59142D6D370470000ED
:100220000023002400250026103A28BF78C1FBD8FF
:10023000520728BF30C148BF0B6070471FB511F08F
:10024000B0F91FBD10B510BD10F01DFF1146FFF72E
:10025000F5FF00F0FEF810F03BFF03B4FFF7F2FFEC
:1002600003BC07F0C1F80000B94A1268521CB84B31
:100270001A60B84A12680AB9012200E00022B54BA0
:100280001A60704730B58BB00446002500BF07F0F8
:1002900075F90AA80DF0DFF80AAA0121084609F04D
:1002A00068F900BF00BF00BF07F0A0FA054600BF15
:1002B00000BFA9480078401CA749087000BF00BFD4
:1002C000284607F097FA00BF00BF00BF0AAB002224
:1002D000A2A1A54809F0B7FE0AA8032100220592B1
:1002E000CDE906210890104680210C229F4BCDE9D4
:1002F0000132CDE90310042000239D4A9DA1009006
:10030000A0480DF07FFC0AA8032100220592CDE948
:100310000621089010464FF4807119229A4BCDE9BE
:100320000132CDE9031005200023984A98A10090DE
:100330009B480DF067FC0AA8032100220592CDE935
:100340000621089010464FF480711922954BCDE993
:100350000132CDE903100E200023934A93A10090AF
:1003600096480DF04FFC0AA8032100220592CDE922
:100370000621089010464FF480711922904BCDE968
:100380000132CDE90310062000238E4A8EA1009091
:1003900091480DF037FC0AA8032100220592CDE90F
:1003A0000621089010464FF4807119228B4BCDE93D
:1003B0000132CDE9031007200023894A89A100906A
:1003C0008C480DF01FFC0AA80021AFF26312022333
:1003D000CDE90032CDE9021032230A4686A18948D0
:1003E0000FF0E9FD0AA987480FF0C3FF00BF00BF67
:1003F00000BF07F0FBF9054600BF00BF5648007874
:10040000401E5549087008460078A0B97E4800880B
:10041000002809DD00BF00BF284607F0EBF900BF48
:1004200000BF09F08FFC0DE000BF00BF284607F0B9
:10043000E1F900BF06E000BF00BF284607F0DAF987
:1004400000BF00BF00BF0AA900200DF02FFD0BB0B8
:1004500030BD10B58AB00024A82006F03FFF4FF44D
:10046000A06002F043FD4FF4164000F055FD4FF43C
:10047000165001F0FFFE01F04FF800F0BFFE002023
:1004800010F0A7FB01F0E6FD09A808F049FE00BF47
:1004900000BF00BF07F0AAF9044600BF00BF2E4806
:1004A0000078401C2C49087000BF00BF204607F0B0
:1004B000A1F900BF00BF00BF09A8032100220592D7
:1004C000CDE90621089010464FF4007133224F4BBE
:1004D000CDE90132CDE9031002200023AFF25B2207
:1004E0004BA100904D480DF08DFB00BF00BF00BF39
:1004F00007F07CF9044600BF00BF17480078401E93
:100500001549087008460078A0B93F4800880028BF
:1005100009DD00BF00BF204607F06CF900BF00BF37
:1005200009F010FC0DE000BF00BF204607F062F9A3
:1005300000BF06E000BF00BF204607F05BF900BF28
:1005400000BF00BF09A809F0B4F800200AB010BD30
:10055000000000209C024442D80100204952515F13
:100560004556454E547300001424002014180020F2
:10057000810D000852663433335461736B54434227
:100580000000000050170020E00C0020130A0008B3
:100590005063436F6D52785461736B544342000053
:1005A000580B0020E0100020630A00085063436FDE
:1005B0006D54785461736B54434200001C0C00204E
:1005C000141C0020450E000843616E5278305461BF
:1005D000736B5443420000008C1A0020142000204A
:1005E000750E000843616E5278315461736B544349
:1005F00042000000501B0020746D725F6C696768D8
:1006000074000000240B00209C0100202403002023
:100610007374617274207461736B00006002002057
:1006200000BF011EA0F10100FBD1704770470BE035
:100630001C48006808B9012000E000201949086042
:100640006FF07F40FFF7ECFFF2E70BE01548006822
:1006500008B9012000E00020124908606FF07F40D7
:10066000FFF7DEFFF2E70BE00E48006808B9012053
:1006700000E000200B4908606FF07F40FFF7D0FFDB
:10068000F2E70BE00748006808B9012000E000200D
:10069000044908606FF07F40FFF7C2FFF2E7704740
:1006A000704700009C0244420CB50020019000906D
:1006B0007648006840F480307449086000BF734891
:1006C000006800F4003000900198401C01900098F0
:1006D00018B90198B0F5A04FF1D16C48006800F44A
:1006E000003010B10120009001E00020009000983F
:1006F000012846D165484030006840F08050634989
:10070000403108606248006840F440406049086039
:100710005E48083000685D49083108600846006896
:1007200040F4004008600846006840F4A0500860AB
:100730005848091F0860081F006840F08070091FB2
:10074000086000BF5148006800F000700028F9D030
:1007500040F20570504908604C480830006820F0AD
:1007600003004A49083108600846006840F002006A
:10077000086000BF45480830006800F00C000828F9
:10078000F8D10CBD10B54548006840F470004349ED
:1007900008603E48006840F001003C4908600020C5
:1007A0003A4908310860394800683D4908403749EE
:1007B00008603C48091D0860081F006820F480207C
:1007C000091F0860002031490C310860FFF76CFFF9
:1007D0004FF0006031498039086010BD70B50020CD
:1007E0000022022300240221284D08352D6805F03F
:1007F0000C0020B1042806D0082834D107E02A4D87
:100800002A4E356033E02A4D284E35602FE01F4DCB
:100810002D1D2D68C5F380541C4D2D1D2D6805F030
:100820003F0154B1224DB5FBF1F5184E361D366827
:10083000C6F3881605FB06F209E01B4DB5FBF1F582
:10084000124E361D3668C6F3881605FB06F20F4DAC
:100850002D1D2D68C5F301456D1C6B00B2FBF3F532
:10086000124E356003E0104D104E356000BF00BFE2
:10087000064D08352D68C5F303150E4E705D0B4D02
:100880002D68C540094E356070BD0000003802403B
:100890000070004008544007003C024088ED00E032
:1008A000FFFFF6FE103000240024F40004000020B6
:1008B00000127A000800002000BF028802F0400207
:1008C000002AFAD0C1F308028280704770B504464E
:1008D000002521789748FFF7EFFF61789548FFF7EB
:1008E000EBFFA1789348FFF7E7FFE1789148FFF726
:1008F000E3FF21798F48FFF7DFFF00BF05E0601DB0
:10090000415D8C48FFF7D8FF6D1C2079A842F6DCCA
:1009100094F805118748FFF7CFFF4FF48071601DF1
:1009200010F032FB70BD2DE9F04105460C46002663
:1009300005B114B90020BDE8F081AA2020706078CC
:10094000401C60700120A0700020E07062202071C7
:1009500062222946601D10F0D2FA2079002808DDB5
:10096000002603E0601D805D4740761C2079B04280
:10097000F8DC0120DFE72DE9F04105460C460026B2
:10098000002705B114B90020BDE8F0812878AA2815
:1009900001D00020F8E72878207068786070A87887
:1009A000A070E878E070287920712279691D601DB7
:1009B00010F0A5FA2179681D405C84F80501002635
:1009C00003E0601D805D4740761C2079B042F8DC72
:1009D00094F80501B84201D10120D5E70020D3E702
:1009E00070B505460026544C09E02078A978884265
:1009F00004D1284661688847064603E008346068E9
:100A00000028F2D100BF022E02D12846FFF75EFF78
:100A100070BD0EB524E002A800214FF482730A468F
:100A2000CDE900100421454809F0CDFC4448006898
:100A300008B9012000E000204149086000F05CFB9B
:100A40004049086040493F480068FFF794FF38B1CB
:100A50003D48FFF7C5FF4FF483713B4810F0B6FAED
:100A6000D9E70EB510E039493948FFF75CFF374840
:100A7000FFF72CFF02A8082100230122CDE9001076
:100A8000194618460FF059F8EDE701460320704764
:100A900001460320704701460320704701460320AA
:100AA0007047014603207047014603207047014606
:100AB000032070470146032070470146032070471A
:100AC000014603207047014603207047014603207A
:100AD00070470146032070470146032070470146D6
:100AE00000207047014600207047014600207047F3
:100AF0000146002070470146002070470146002053
:100B000070470146002070470146002070470146AB
:100B100000207047014600207047014600207047C2
:100B20000146002070470146002070470146002022
:100B300070470000005000400001002014240020F5
:100B4000940244420801002048160020E0140020CE
:100B5000E615002070B50546AC79EE7904F0010089
:100B6000A149087004F00200A049087004F00400D4
:100B70009F49087004F008009E49087004F01000B6
:100B80009D49087004F020009C49087006F002009E
:100B90009B49087004F080009A49087006F0010033
:100BA000994908709048007898490978884215D08A
:100BB0008D48007860B1002002F007F901F0C7FA13
:100BC0009348007820F00100401C9149087005E02E
:100BD0008F48007820F001008D4908708348007824
:100BE0008C49097888420BD08048007820B10021D8
:100BF000012000F06DFD03E00021084600F068FDD3
:100C00007B4800788449097888420BD0784800787E
:100C100020B10021012000F087FD03E000210846FB
:100C200000F082FD734800787C490978884200D042
:100C300000BF714800787A49097888420BD06E4825
:100C4000007820B10021012000F09EFD03E000218A
:100C5000084600F099FD6948007872490978884291
:100C600000D000BF664800786F490978884200D0FC
:100C700000BF644800786D490978884200D000BF01
:100C8000614800786A490978884200D000BF564818
:100C900000785E490870554800785E4908705448ED
:100CA00000785D490870534800785C4908705248E4
:100CB00000785B490870514800785A4908705048DC
:100CC0000078594908704F480078584908704E48D4
:100CD00000785749087070BD70B50646002400259D
:100CE0005448C178807801EB002004B25148417922
:100CF000007901EB002005B22CB1C82C03DA14F105
:100D0000C80F00DD00242DB1C82D03DA15F1C80F7E
:100D100000DD002504B935B146488079012808D1A5
:100D20004448C07928B901F012FA002002F04DF8C9
:100D300016E08CB1002C06DD9FED3F0A4FF4967152
:100D4000012001F0BFF9002C06DA9FED3B0A4FF4B9
:100D50009671002001F0B6F915B1284602F035F879
:100D600070BD10B504462046FFF7B6FF2046FFF7DA
:100D7000F1FE002044F8010F6060A060641E10BD09
:100D80000EB500242EE002A800214FF482730A461B
:100D9000CDE900100221294809F015FB2848006818
:100DA00008B9012000E000202549086001F055FB4A
:100DB0000446B4F880000C2800D013E02078AA285C
:100DC0000FD1E079BB280CD1E07ACC2809D1B4F955
:100DD0008020611C1748401C10F091F81548FFF75F
:100DE000C0FF00BFCFE700000C0100200D01002074
:100DF0000E0100200F010020100100201101002031
:100E00001201002013010020140100201501002010
:100E100020010020160100201701002018010020E9
:100E2000190100201A0100201B0100201C010020D4
:100E30001D010020141A00200000000014240020CE
:100E4000900244420EB514E002A800214FF48273D0
:100E50000A46CDE900102021134809F0B4FA01F048
:100E600042F81248006808B9012000E000200F494C
:100E70000860E9E70EB516E002A800214FF482737E
:100E80000A46CDE900102021074809F09CFA01F03C
:100E900041F80648001D006808B9012000E0002064
:100EA0000249091D0860E7E7142400209802444223
:100EB000012080F3138800BF00BF00BF00BF00BF48
:100EC00000BFBFF34F8F00BF00BF00BF10480068D6
:100ED00000F4E0600F490843001D0D49086000BFA1
:100EE00000BF00BFBFF34F8F00BF00BF00BF00E0D7
:100EF00000BFFDE7002105E001228A4020FA02F24E
:100F00005040491C01228A40202AF5D37047000036
:100F10000CED00E00000FA0510B596B00446012182
:100F2000AC4802F077FB0121080502F0BCFB35203C
:100F30008DF8440000208DF8460001208DF8470010
:100F400011A801F0D8FF0B208DF8440000208DF887
:100F5000460001208DF8470011A801F0CCFF2F209A
:100F60008DF8440000208DF8460001208DF84700E0
:100F700011A801F0C0FF04200F9002208DF840005E
:100F80008DF8410000208DF8420001208DF84300CB
:100F90000FA9914802F0A0F84FF480500F90022062
:100FA0008DF840008DF8410000208DF842000120AE
:100FB0008DF843000FA9894802F08EF8082202211B
:100FC000854802F014F908220C21844802F00FF938
:100FD00012940020ADF84C00ADF84E00ADF8500072
:100FE000ADF854000C20ADF8520012A97C4802F074
:100FF00016FD7C4804F09CFF4FF00060009078489C
:10100000001D0190784802900020039080200490F9
:10101000002005904FF48060069000200790089013
:1010200009904FF440300A9000200B9001200C9062
:1010300000200D900E9069466A4805F01BF80121CA
:10104000684805F051F86748A83004F071FF4FF088
:10105000006000906248001D0190644802904020AA
:10106000039080200490002005904FF4806006904B
:1010700000200790089009904FF440300A9000201B
:101080000B9001200C9000200D900E906946554861
:10109000A83004F0EFFF01215248A83005F024F8F1
:1010A000012210214F48A83005F0ABF8012240F290
:1010B00024414B4802F0F1FD002240F225514848FE
:1010C00002F0EBFD002240F22771454802F0E5FDF9
:1010D00001228021424802F0D7FD012240214048F0
:1010E00002F0D2FD40213E4802F0FCFD01213C48C7
:1010F00002F01DFD16B010BD3B48704770B50446A8
:1011000020460FF0DDFE05B200BF39480078002808
:10111000FBD00020364908702A46214633480FF09C
:10112000EEFE32482F49B43108602E481038C0F81E
:10113000BC5001212B48A83004F0D6FF70BD08B583
:1011400008F084F840F22441254802F0E1FD20B384
:1011500040F22441224802F016FE214802F016FD1A
:101160000021204804F0C0FF1E4810384069C0F13B
:10117000800000B21C49A1F880006B4600220421C7
:101180001C4809F004FE184816491039C86180202F
:1011900048610121134804F0A7FF08F068F808BD72
:1011A00010B508F053F814490E48A83005F046F879
:1011B00001280CD100210B48A83004F095FF0E49FE
:1011C0000848A83005F064F801200949087008F0C3
:1011D0004EF810BD0C002000000C02400008024038
:1011E0000050004010600240BE2400203C2400203B
:1011F0002E010020142400200080002800B599B0A2
:1012000001217A2002F006FA0121084602F03AFA9A
:101210004FF40040179001208DF8600000208DF8F9
:10122000620002208DF8610001208DF8630017A98B
:10123000B44801F051FF4FF63370179002208DF83B
:10124000600000208DF8620003208DF8610001200D
:101250008DF8630017A9AC4801F03EFF4FF683708C
:10126000179002208DF8600000208DF862000320A6
:101270008DF8610001208DF8630017A9A34801F0E3
:101280002BFF4FF23F00179002208DF860000020E6
:101290008DF8620003208DF8610001208DF8630055
:1012A00017A99B4801F018FF40F23F401790022019
:1012B0008DF8600000208DF8620003208DF8610039
:1012C00001208DF8630017A9924801F005FF0C2258
:1012D00000218D4801F08BFF0C2201218A4801F08A
:1012E00086FF0C220421884801F081FF0C22052191
:1012F000854801F07CFF0C220821834801F077FF2C
:101300000C220921804801F072FF0C220A217E483C
:1013100001F06DFF0C220B217B4801F068FF0C22CD
:101320001146794801F063FF0C220D21764801F047
:101330005EFF0C220E21744801F059FF0C220F2190
:10134000714801F054FF0C220021704801F04FFF5A
:101350000C2201216D4801F04AFF0C2207216B4845
:1013600001F045FF0C220821684801F040FF0C22E3
:101370000921664801F03BFF0C220A21634801F075
:1013800036FF0C220B21614801F031FF0C2211467F
:101390005E4801F02CFF0C220D215C4801F027FF74
:1013A0000C220E21594801F022FF0C220F21574830
:1013B00001F01DFF0C220021554801F018FF0C22FE
:1013C0000121534801F013FF0C220221504801F083
:1013D0000EFF0C2203214E4801F009FF0C220421CC
:1013E0004B4801F004FF0C220521494801F0FFFEA3
:1013F0000C221146464801F0FAFE0C220D21444809
:1014000001F0F5FE0C220E21414801F0F0FE0C2205
:101410000F213F4801F0EBFE0C2200213D4801F076
:10142000E6FE0C2201213B4801F0E1FE0C220221E4
:10143000384801F0DCFE0C220321364801F0D7FECB
:101440000C220421334801F0D2FE0C220521314840
:1014500001F0CDFE0C220A212E4801F0C8FE00202A
:1014600001900290082003900020049005900690BF
:10147000079004200890002009900A9010200B90FB
:1014800000200C900E900D900F9010904FF4805013
:101490001190002012901390149001A815901690AE
:1014A00008A802F09AFC0121042002F03BFD19B0CB
:1014B00000BD10B506E004784FF0D0435C54491CE1
:1014C000401C521E002AF6D110BD06E04FF0D0435A
:1014D0005B5C00F8013B491C521E002AF6D17047A4
:1014E00013B504460122214601A8FFF7E2FF1CBD07
:1014F00018B50446012221466846FFF7E6FF9DF82D
:10150000000018BD00040240000C02400010024020
:1015100000140240001802401CB50121080202F02C
:1015200079F8F020009001208DF8040000208DF85B
:1015300006008DF8070003208DF805006946C148B4
:1015400001F0CAFD1CBD1CB50121482002F062F863
:1015500001210A2002F05EF80121482002F05AF829
:101560000121402002F056F801208DF804000020EF
:101570008DF806008DF8070002208DF805000002A6
:1015800000906946B04801F0A7FD20200090694610
:10159000AE4801F0A1FD402000906946AB4801F043
:1015A0009BFD802000906946A84801F095FD102021
:1015B00000906946A54801F08FFD0820009069461B
:1015C000A24801F089FD082000906946A04801F07A
:1015D00083FD1020009069469D4801F07DFD0220AA
:1015E00000906946994801F077FD01200090694616
:1015F000964801F071FD4FF4806000906946924872
:1016000001F06AFD4FF40060009069468E4801F0D9
:1016100063FD4FF48050009069468B4801F05CFDFB
:101620004FF4005000906946874801F055FD4FF493
:10163000804000906946844801F04EFD4FF4004020
:1016400000906946804801F047FD4FF4007000901B
:1016500069467F4801F040FD1CBD1CB501210420F6
:1016600001F0D8FF01208DF804008DF806008DF8F8
:10167000070002208DF80500C001009069467548FA
:1016800001F02AFD1CBD1CB50121202001F0C2FF84
:1016900001208DF8040000208DF806008DF8070069
:1016A00002208DF805008003009069466A4801F029
:1016B00013FD1CBD70B504460D4624B908216348CE
:1016C00001F088FD03E00821604801F081FD70BD54
:1016D00070B504460D4624B902215C4801F07AFD3C
:1016E00003E00221594801F073FD70BD70B5044656
:1016F0000D4624B90121554801F06CFD03E001219C
:10170000524801F065FD70BD70B504460D462CB918
:101710004FF480514C4801F05DFD04E04FF48051DE
:10172000494801F055FD70BD70B504460D462CB911
:101730004FF40051444801F04DFD04E04FF40051D6
:10174000414801F045FD70BD70B504460D462CB909
:101750004FF480413C4801F03DFD04E04FF48041EE
:10176000394801F035FD70BD70B504460D462CB901
:101770004FF40041344801F02DFD04E04FF40041E6
:10178000314801F025FD70BD70B504460D4624B901
:1017900008212F4801F01EFD03E008212C4801F02C
:1017A00017FD70BD70B504460D465CB92B4B002289
:1017B00011462B480EF089FE4FF48061224801F05B
:1017C00009FD15E0012C0AD1244B002211462448C2
:1017D0000EF07BFEA1021C4801F0FAFC08E04FF479
:1017E0008061194801F0F4FC1C491D480EF0C1FD50
:1017F00070BD70B504460D465CB91A4B0022114607
:1018000019480EF062FE4FF400610F4801F0E2FC4F
:1018100015E0012C0AD1134B0022114612480EF09C
:1018200054FEE102084801F0D3FC08E04FF40061E7
:10183000054801F0CDFC0B490B480EF09AFD70BD38
:10184000704700000020024000180240000C0240D7
:101850000004024000080240001402403001002051
:10186000241A002032010020581A00201CB5012142
:10187000802001F0CFFE00208DF8040001208DF8BB
:10188000070002208DF805004020009069464E4870
:1018900001F022FC00208DF8040001208DF80700E3
:1018A00002208DF80500C00100906946464801F00D
:1018B00013FC1CBD1CB50121102001F0ABFE40F251
:1018C000FF10009000208DF8040001208DF8070023
:1018D00003208DF8050069463C4801F0FDFB1CBD66
:1018E00070B52DED068B3A4801F061FCC04385B21E
:1018F000C5F308052846FFF7FDFAC0F30804FF2CDE
:1019000002DDA4F5007084B220460FF08CFC41EC9F
:101910001A0B9FED300B53EC102B0FF0D3FC41EC66
:10192000190B0FF043FC08EE100AB0EE480ABDECAC
:10193000068B70BD00B585B00121802001F06AFEE4
:101940000121880301F0C0FE02208DF810008DF8FF
:1019500013008DF811008020039003A91A4801F0AC
:10196000BBFB0721084601F0BAFF802004F033FDDD
:101970008020009001208DF8060000208DF80400E2
:1019800008208DF80500684604F0B4FC17208DF897
:10199000080001208DF80B0000208DF809008DF85B
:1019A0000A0002A801F0A7FA05B000BD10B580201A
:1019B00004F006FD012805D1802004F0FDFC802004
:1019C00004F009FD10BD0000001C024000100240A0
:1019D00000180240000000000080E63F00B59DB006
:1019E0000121D34801F016FE0121080201F06CFE2E
:1019F000D04804F09DFA002002908C200690002030
:101A00000590CD480490CD48039000150890002023
:101A100007904FF400600A900990C0100B904FF4AB
:101A200040300C9000200D9001200E9000200F906F
:101A3000109002A9BF4804F01DFB38208DF8040067
:101A400001208DF8070006208DF8050000208DF894
:101A5000060001A801F04FFA01221021B54804F058
:101A6000D0FB0121B34804F03FFB73201B900320FF
:101A70008DF870008DF8710000208DF873001BA99F
:101A8000AF4801F029FB03201B908DF870008DF802
:101A9000710000208DF873001BA9AA4801F01CFBFF
:101AA0003F201B9003208DF870008DF871000020FE
:101AB0008DF873001BA9A44801F00EFB00201190C3
:101AC0004FF440301290002013904FF47060149047
:101AD00011A803F03DFB0020159001208DF858005F
:101AE0008DF8590000201790189019900E208DF84D
:101AF000680015A991484C3803F0FBFA072301222E
:101B000000218E484C3803F07AFB07230222012182
:101B10008A484C3803F073FB0723032204218748CB
:101B20004C3803F06CFB07230422052183484C3812
:101B300003F065FB07230522062180484C3803F09B
:101B40005EFB0723062208217C484C3803F057FB34
:101B500007231A46092179484C3803F050FB072324
:101B600008220A2175484C3803F049FB0723092253
:101B70000B2172484C3803F042FB07230A220C2148
:101B80006E484C3803F03BFB07230B220D216B48BA
:101B90004C3803F034FB07230C220E2167484C38E5
:101BA00003F02DFB07230D220F2164484C3803F06E
:101BB00026FB07230E22112160484C3803F01FFB3F
:101BC000012003F0FAFA01215C484C3803F0C2FB13
:101BD00001215A484C3803F0B2FB012157484C38D8
:101BE00003F0CDFA55484C3803F065FB1DB000BD3D
:101BF000F0B500208CE0002334E000222DE0C2EBA1
:101C0000C2054D4E06EB850535F81060551CC5EB39
:101C1000C505494F07EB850535F81050AE421BDD71
:101C2000C2EBC2053E4606EB850535F81040551C53
:101C3000C5EBC50506EB850535F81050C2EBC206AD
:101C400007EB860626F81050551CC5EBC5053E4629
:101C500006EB850525F81040521CC3F10A05954294
:101C6000CDD85B1C0A2BC8D30123002108E0C3EBAD
:101C7000C305314E06EB850535F8105029445B1C31
:101C8000092BF4D3C90810B9304E31803FE0012848
:101C900002D12E4E71803AE0022802D12B4EB18043
:101CA00035E0032802D1294EF18030E0042802D12A
:101CB000264E31812BE0052802D1244E718126E089
:101CC000062802D1214EB18121E0072802D11F4E02
:101CD000F1811CE0082802D11C4E318217E009284E
:101CE00002D11A4E718212E00A2802D1174EB18237
:101CF0000DE00B2802D1154EF18208E00C2802D12C
:101D0000124E318303E00D2801D1104E7183401C27
:101D10000E28FFF470AFF0BD10B50D49054804F072
:101D20008DFA18B10A49034804F0B2FA10BD000058
:101D30000100400010640240402500204C2001407A
:101D40000000024000040240000802405826002023
:101D50002080001000B58BB000220221794803F0EA
:101D600091FF0121084601F055FC0121480601F0D0
:101D70009AFC4FF40060099002208DF828000020A2
:101D80008DF82A0001208DF82B0002208DF8290003
:101D900009A96D4801F0A0F94FF480500990022084
:101DA0008DF8280000208DF82A008DF82B000220E5
:101DB0008DF8290009A9644801F08EF909220B2148
:101DC000614801F014FA09220C215F4801F00FFA72
:101DD0005C4803F0B5FB06A803F0D6FC00208DF8A4
:101DE0001B0005208DF81C0006208DF81D00ADF8A5
:101DF000180000208DF81A0001208DF823008DF8BE
:101E0000210000208DF81E008DF8220001208DF8A1
:101E10001F008DF8200006A94A4803F0AAFB00BF66
:101E200006A9484803F0A5FB0128F9D100208DF848
:101E30001200ADF810008DF8130001208DF8140089
:101E40000020ADF80800ADF80A002820ADF80C001D
:101E50000420ADF80E0001208DF8150002A803F053
:101E600012FC01220221374803F00CFF14208DF8E8
:101E7000040001208DF8050000208DF806000120E7
:101E80008DF8070001A801F036F801208DF8120046
:101E9000ADF8100000208DF8130001208DF814001B
:101EA0000020ADF80800ADF80A00ADF80C00ADF860
:101EB0000E0001208DF8150002A803F0E4FB1520A8
:101EC0008DF8040001208DF805008DF806008DF8CE
:101ED000070001A801F00FF801221021194803F0B2
:101EE000D1FE0BB000BD1948704708B51421174842
:101EF0000FF06CF8154A0021124803F0A8FD6B465C
:101F000000222021124808F042FF02210D4803F070
:101F1000BCFF08BD0F48704708B514210D480FF0ED
:101F200055F80C4A0121074803F091FD6B46002249
:101F30002021074808F02BFF1021024803F0A5FFDD
:101F400008BD00000064004000000240742600202C
:101F5000142400208826002000B58BB00121102019
:101F600001F058FB0121080401F0AEFB01208DF8BF
:101F7000280000208DF82A008DF82B0002208DF813
:101F800029001020099009A9B24801F0A5F81021F4
:101F9000B04801F01FF901208DF8280000208DF8CD
:101FA0002A008DF82B0002208DF8290020200990AE
:101FB00009A9A84801F090F802208DF82800002017
:101FC0008DF82A008DF82B0003208DF82900402081
:101FD000099009A99F4801F07FF8032206219D4836
:101FE00001F005F99C4802F027FAA720ADF8180087
:101FF0000020ADF81A00ADF820008DF8220040F264
:10200000E730079006A9944802F0C3FA01A802F04D
:1020100079FC0020ADF814006020ADF80400002029
:10202000ADF810000120ADF806004FF4FA700390EF
:1020300001A9894802F07BFB0821874802F0D4FC03
:102040000121854802F010FB0121834802F02AFBA0
:102050000BB000BD1FB50121022001F024FB40F2AE
:102060004730ADF804000020ADF80600ADF80C00D4
:102070008DF80E0041F28730029001A9774802F0F6
:1020800088FA01221146754802F024FF1D208DF8C0
:10209000000006208DF8010000208DF802000120CC
:1020A0008DF80300684600F026FF01216B4802F01E
:1020B00025FF0021694802F0D7FA0121674802F0A4
:1020C000F1FA1FBD70B52DED028B04460D46F0EE02
:1020D000408AFFF705FCB0EE408AB3EE090AB4EE81
:1020E000C08AF1EE10FA04DD012C02D1BDEC028BA6
:1020F00070BDBBEE090AB4EEC08AF1EE10FA01D24F
:1021000004B9F3E75448C56268105349886324B1A1
:102110002021504801F05CF803E020214D4801F0F7
:1021200059F810214B4801F053F84B48008B40F40C
:10213000C0404949088300204849243108600121F2
:10214000464802F0AFFA4648047000BFCEE710B52B
:102150004148008B48F6FF7108403F490883102131
:102160003C4801F037F800213C4802F09BFA02207D
:102170003B49087010BD10B52DED068BFFF7B0FB85
:10218000B0EE408A9FED370A38EE400A10EE101A82
:1021900008460FF095F941EC1A0BB0EE4A0AF0EE42
:1021A0006A0A0EF0F9FFB0EE409AF0EE609A9FEDE9
:1021B0002E0B53EC102B51EC190B0FF047F802D2F9
:1021C000BDEC068B10BDB5EEC08AF1EE10FA07DD4E
:1021D0009FED240A4FF4FA710020FFF773FF06E029
:1021E0009FED200A4FF4FA710120FFF76BFF00BF4B
:1021F000E6E710B50121194802F083FE012827D136
:10220000FFF76EFB1A4880ED000A90ED000AF3EE2E
:10221000070AB4EEE00AF1EE10FA05DD1048007886
:10222000012801D1FFF793FF114890ED000AFBEE62
:10223000070AB4EEE00AF1EE10FA04D2084800787A
:1022400008B9FFF784FF4FF6FE700449103108808B
:1022500010BD00000010024000400140000400409A
:1022600034010020000000000000000000000040D9
:102270003801002010B596B004460121B94801F09C
:10228000C9F90121880401F00EFA27208DF84400D5
:1022900000208DF8460001208DF8470011A800F0BD
:1022A0002AFE0C208DF8440000208DF84600012005
:1022B0008DF8470011A800F01EFE0E208DF8440096
:1022C00000208DF8460001208DF8470011A800F08D
:1022D00012FE4FF480600F9002208DF84000032022
:1022E0008DF8410000208DF8420001208DF8430058
:1022F0000FA99D4800F0F0FE4FF400600F900220FF
:102300008DF8400003208DF8410000208DF8420038
:1023100001208DF843000FA9934800F0DDFE07224D
:102320000A21914800F063FF07220B218E4800F03C
:102330005EFF12940020ADF84C00ADF84E00ADF8F1
:102340005000ADF854000C20ADF8520012A9874897
:1023500001F065FB864803F0EBFD4FF00060009054
:102360008248001D01908348029000200390802045
:102370000490002005904FF48060069000200790A4
:10238000089009904FF440300A9000200B900120F3
:102390000C9000200D900E906946754803F06AFE7F
:1023A0000121734803F0A0FE7148303003F0C0FDF6
:1023B0004FF0006000906D48001D01906E48029043
:1023C0004020039080200490002005904FF480600E
:1023D000069000200790089009904FF440300A9032
:1023E00000200B9001200C9000200D900E9069466B
:1023F0005F48303003F03EFE00215D48303003F08E
:1024000073FE012210215A48303003F0FAFE0122F7
:1024100040F22441554801F040FC002240F2255191
:10242000524801F03AFC002240F227714F4801F077
:1024300034FC012280214D4801F026FC012240217C
:102440004A4801F021FC4021484801F04BFC0121A1
:10245000464801F06CFB16B010BD4648704770B599
:10246000044620460EF02CFD05B200BF434800781C
:102470000028FBD00020414908702A4621463E48EA
:102480000EF03DFD3C483A49283948660846C56586
:1024900001213748303003F027FE70BD70B5054686
:1024A00028460EF00DFD06B2002400BF0BE000BF71
:1024B0002E48008800F040000028F9D0285D2B4904
:1024C000091D0880641CB442F1DB70BD10B506F034
:1024D000BDFE40F22441254801F01AFC20B340F231
:1024E0002441224801F04FFC204801F04FFB00211D
:1024F0001F4803F0F9FD1E482838C06AC0F180006B
:1025000000B21C49A1F880001D4B002202211D4889
:1025100008F03DFC17481649283948638020C862F6
:102520000121134803F0E0FD06F0A1FE10BD10B537
:1025300006F08CFE14490E48303003F07FFE01286F
:102540000CD100210A48303003F0CEFD0E49084876
:10255000303003F09DFE01200849087006F087FE28
:1025600010BD0000020020000004024000480040AE
:10257000286002401E2700209C2600203C010020ED
:102580003E010020142400200080001810B596B0F1
:1025900004460121FE4801F03DF80121C80401F084
:1025A00082F834208DF8440000208DF84600012088
:1025B0008DF8470011A800F09EFC0D208DF8440016
:1025C00000208DF8460001208DF8470011A800F08A
:1025D00092FC0F208DF8440000208DF84600012069
:1025E0008DF8470011A800F086FC4FF480600F9032
:1025F00002208DF840008DF8410000208DF8420047
:1026000001208DF843000FA9E24800F065FD4FF46A
:1026100000600F9002208DF840008DF841000020EE
:102620008DF8420001208DF843000FA9D94800F031
:1026300053FD08220A21D74800F0D9FD08220B21BA
:10264000D44800F0D4FD12940020ADF84C00ADF851
:102650004E00ADF85000ADF854000C20ADF852001B
:1026600012A9CD4801F0DBF9CC4803F061FC4FF032
:1026700000600090C848001D0190C94802900020E9
:10268000039080200490002005904FF48060069015
:1026900000200790089009904FF440300A900020E5
:1026A0000B9001200C9000200D900E906946BB48C5
:1026B00003F0E0FC0121B94803F016FDB7483030C3
:1026C00003F036FC4FF000600090B348001D01900D
:1026D000B448029040200390802004900020059090
:1026E0004FF48060069000200790089009904FF406
:1026F00040300A9000200B9001200C9000200D909B
:102700000E906946A548303003F0B4FC0121A3487F
:10271000303003F0E9FC01221021A048303003F0F2
:1027200070FD012240F224419B4801F0B6FA0022DC
:1027300040F22551984801F0B0FA002240F227718A
:10274000954801F0AAFA01228021934801F09CFAF1
:1027500001224021904801F097FA40218E4801F073
:10276000C1FA01218C4801F0E2F916B010BD10B594
:1027700096B0044601218648401C00F04BFF012121
:10278000480400F090FF26208DF8440000208DF8CA
:10279000460001208DF8470011A800F0ACFB102086
:1027A0008DF8440000208DF8460001208DF8470088
:1027B00011A800F0A0FB11208DF8440000208DF836
:1027C000460001208DF8470011A800F094FB04207A
:1027D0000F9002208DF840008DF8410000208DF808
:1027E000420001208DF843000FA96F4800F074FCEF
:1027F00008200F9002208DF840008DF84100002045
:102800008DF8420001208DF843000FA9664800F0C2
:1028100063FC07220221644800F0E9FC072203213F
:10282000614800F0E4FC12940020ADF84C00ADF8D3
:102830004E00ADF85000ADF854000C20ADF8520039
:1028400012A95A4801F0EBF85448483003F070FBE5
:102850004FF0006000905548001D019054480290D0
:102860000020039080200490002005904FF48060A9
:10287000069000200790089009904FF440300A908D
:1028800000200B9001200C9000200D900E906946C6
:102890004248483003F0EEFB01214048483003F045
:1028A00023FC3E48603003F043FB4FF00060009093
:1028B0003E48001D01903E48029040200390802039
:1028C0000490002005904FF480600690002007904F
:1028D000089009904FF440300A9000200B9001209E
:1028E0000C9000200D900E9069462C48603003F04B
:1028F000C1FB01212948603003F0F6FB01221021C1
:102900002648603003F07DFC012240F22441274834
:1029100001F0C3F9002240F22551244801F0BDF92D
:10292000002240F22771214801F0B7F901228021ED
:102930001E4801F0A9F9012240211C4801F0A4F928
:1029400040211A4801F0CEF90121184801F0EFF8B2
:1029500016B010BD70B5044620460EF0B1FA05B2AF
:1029600000BF144800780028FBD0002011490870EF
:102970002A4621460A480EF0C2FA0948074940395A
:10298000C8670846456701210448303014E000005C
:102990000400200000080240004C0040406002405B
:1029A000A027002022280020000002400044004010
:1029B000A42800204001002003F096FB70BD70B5F4
:1029C000044620460EF07CFA05B200BF5448007859
:1029D0000028FBD00020524908702A462146514861
:1029E0000EF08DFA4F48504908604F48AC38C0F897
:1029F000A45001214C480C3803F076FB70BD10B593
:102A000006F024FC40F22441484801F081F900B36B
:102A100040F22441454801F0B6F9444801F0B6F8C7
:102A2000002141486C3803F05FFB3F48AC38406CF4
:102A3000C0F1800000B23E49A1F8800008463A4942
:102A4000AC39C86480204864012137486C3803F0F1
:102A50004BFB06F00CFC10BD10B506F0F7FB40F286
:102A60002441344801F054F918B340F2244131486C
:102A700001F089F92F4801F089F800212A4824380B
:102A800003F032FB284820380068C0F1800000B213
:102A90002749A1F8800028482349AC39C1F894009F
:102AA000802021492039086001211F48243803F083
:102AB0001BFB06F0DCFB10BD10B506F0C7FB1F4981
:102AC00019483C3803F0BAFB01280CD10021164804
:102AD0003C3803F009FB194913483C3803F0D8FB94
:102AE00001201749087006F0C2FB10BD10B506F0B2
:102AF000ADFB14490C480C3803F0A0FB01280CD1A5
:102B0000002109483C3803F0EFFA0E4906480C381A
:102B100003F0BEFB01200249087006F0A8FB10BDBF
:102B200041010020A4280020AC600240004C00407D
:102B30002228002000440040262900202080002078
:102B4000400100200080202000B585B00121080749
:102B500000F0A9FD012003F052FC002004F0A6FAC9
:102B60004AF2A201884246D0012000F0F0FB00BFEB
:102B7000412000F0A5FB0028FAD04FF4807000F04F
:102B8000E7FC012000F0FFFC03F0D2FC7F20039063
:102B9000FF2004900020029002A803F090FD6348FB
:102BA00000788DF80700614840788DF805005F488F
:102BB00080788DF806005D48C0788DF8040001A982
:102BC000012003F0B5FE00208DF80300574800797E
:102BD0008DF80000554840798DF801005348807900
:102BE0008DF802006946012003F004FE4AF2A201BA
:102BF000002004F04EFA05B000BD70B588B006465E
:102C00000C46154600214FF4807003F0D1FF8DF87B
:102C100000608DF801408DF8025000208DF803000F
:102C200001208DF81000800703904000029000986A
:102C3000019001AA4FF48071002003F002FF4FF4CD
:102C4000805004F018FB4FF4003003F0C4FB012166
:102C5000080304F0A1FA0121080203F0A9FF4FF4D0
:102C60000030059000208DF8180008208DF819001C
:102C700001208DF81A0005A803F03CFB29208DF8EF
:102C80001C0002208DF81D008DF81E0001208DF81B
:102C90001F0007A800F02FF908B070BD3EB505462B
:102CA0000C46002004F009F8284603F0E1FF204616
:102CB00003F0F3FF4FF4804004F0DDFA4FF480009E
:102CC00003F089FB0121880304F066FA012003F078
:102CD000F4FF4FF48000009000208DF804000820DD
:102CE0008DF8050001208DF80600684603F002FB10
:102CF00003208DF8080002208DF809008DF80A00E5
:102D000001208DF80B0002A800F0F5F83EBD10B5CB
:102D10004FF4807004F06FFA012802D1000204F031
:102D20007BFA4FF4003003F056FB10BD4201002047
:102D3000A821484300BF011EA0F10100FBD170474C
:102D400001460120704770B586B00446002540F268
:102D500001100190002002908DF80C008DF80D00FC
:102D600008208DF80E0000208DF80F0028218DF826
:102D7000101000218DF811108DF81210210A8DF815
:102D800013108DF8144000218DF815108DF81610D1
:102D900001A9444802F066FD064604E00120FFF761
:102DA000C7FF681CC5B231463E4802F0F3FD01285A
:102DB00001D0FF2DF2DBFF2D02D0012006B070BD47
:102DC0000020FBE701460120704710B50446364855
:102DD000B0F91E00A04201D1012010BD201E01DB70
:102DE000014600E0414247F23052914201DD0020AD
:102DF000F3E72046FFF7A7FF2B48C4830120ECE749
:102E00000346012070472DE9F04186B007460C4685
:102E10001646002540F201100190002002908DF826
:102E20000C008DF80D0008208DF80E0000208DF8A4
:102E30000F008DF8107021128DF811108DF81240CE
:102E400000218DF813108DF814608DF815108DF891
:102E5000161001A9134802F005FD804604E0012088
:102E6000FFF766FF681CC5B241460E4802F092FDAE
:102E7000012801D0FF2DF2DBFF2D03D0012006B089
:102E8000BDE8F0810020FAE703460120704770B5E5
:102E900004460D461646324629462046FFF7B3FF44
:102EA00070BD000000640040E6150020094880471E
:102EB00009480047FEE7FEE7FEE7FEE7FEE7FEE71C
:102EC000FEE7FEE7FEE7FEE704480549054A064B34
:102ED000704700008507000889010008E0EE012026
:102EE000E0F40120E0F00120E0F00120324901434C
:102EF000324A1160704770B5002100230F22C47858
:102F00001CB32E4C246804F4E064C4F5E064C4F3FC
:102F10000721C1F10404E3B20A4144789C40E1B2C4
:102F20008478144021430C07210E254C0578615507
:102F3000047804F01F050124AC4005786D11AD0044
:102F400005F1E025C5F8004109E0047804F01F050B
:102F50000124AC401B4D0678761145F8264070BD23
:102F6000194A0A400243154B1B1F1A60704739B1BA
:102F7000124A121D12680243104B1B1D1A6006E014
:102F80000E4A121D126882430C4B1B1D1A607047BB
:102F9000042808D14FF0E021096941F004014FF005
:102FA000E022116107E04FF0E021096921F00401FE
:102FB0004FF0E022116170470000FA050CED00E0CF
:102FC00000E400E080E100E080FFFF1F10B5044650
:102FD0009848844208D10121084600F086FB002170
:102FE000012000F082FB76E09348844208D1012161
:102FF000022000F07AFB0021022000F076FB6AE05C
:103000008E48844208D10121042000F06EFB00218B
:10301000042000F06AFB5EE08948844208D1012167
:10302000082000F062FB0021082000F05EFB52E067
:103030008448844208D10121102000F056FB002171
:10304000102000F052FB46E07F48844208D1012165
:10305000202000F04AFB0021202000F046FB3AE04F
:103060007A48844208D10121402000F03EFB002133
:10307000402000F03AFB2EE07548844208D101213F
:10308000802000F032FB0021802000F02EFB22E0A7
:103090007048844208D10121801500F026FB0021F0
:1030A000A01500F022FB16E06B48844208D10121F4
:1030B000401500F01AFB0021601500F016FB0AE035
:1030C0006648844207D10121001500F00EFB002163
:1030D000201500F00AFB10BDF0B50A4600210023C0
:1030E000002400BF3DE0012505FA01F3156805EA5B
:1030F00003049C4234D105684F000326BE40B5430B
:10310000056015794E00B5400668354305601579B0
:10311000012D02D01579022D16D185684F000326A6
:10312000BE40B543856055794E00B540866835434D
:103130008560456801268E40B543456045689679AF
:103140008E40B6B235434560C5684F000326BE4089
:10315000B543C560D5794E00B540C6683543C560F6
:10316000491C1029BFD3F0BD4FF6FF71016000214B
:10317000017141718171C171704708B54FF480329E
:103180000092009A0A430092009AC261C161009ABB
:10319000C261C2690092C269009208BD0246002065
:1031A00013690B400BB1012000E00020704701467D
:1031B000086980B270470246002053690B400BB18A
:1031C000012000E0002070470146486980B2704746
:1031D00001837047418370470AB1018300E0418356
:1031E00070474161704742694A4042617047F0B59B
:1031F000002300244D07ED0E02FA05F3CE1000F176
:10320000200555F826504E07F70E0F26BE40B54351
:10321000CF1000F1200646F82750CE1000F120050F
:1032200055F8265045EA0304CE1000F1200545F874
:103230002640F0BD000002400004024000080240A9
:10324000000C02400010024000140240001802402E
:10325000001C0240002002400024024000280240DE
:10326000F948006840F00100F74908600020F6497D
:1032700008310860F4480068F4490840F2490860E1
:10328000F348091D0860F348EF4984310860F048AD
:103290001038091D0860EC48006820F48020EA49D5
:1032A00008600020E8490C310860E7498C3108606B
:1032B00070470021E44A921C117011460870704753
:1032C00010B501460022002300204A11012A02D134
:1032D000DD4C236808E0022A03D1DB4C70342368FC
:1032E00002E0D94C7434236801F01F020124944099
:1032F0001C400CB1012000E0002010BD38B50020BA
:1033000000900024002500BF3120FFF7D9FF0546BB
:103310000098401C00900098B0F5A04F01D0002DFF
:10332000F2D03120FFF7CCFF08B1012400E00024E7
:10333000204638BD01460020C34A106820F0F8003E
:1033400040EAC10010607047C3490860704700211F
:10335000BD4A703211701170012802D004280AD1C0
:1033600004E00121B84A7032117005E00521B64A27
:103370007032117000E000BF00BF7047B7490860AD
:10338000704770B5049C41EA82150126C6EB5306CE
:1033900045EA0645054345EA0465AB4E361D3560F2
:1033A00070BDAD4908667047820142EA0172A64BC2
:1033B00084331A607047A8498866704710B5830146
:1033C00043EA016343EA02739F4C8834236010BDD3
:1033D000A14908677047A049C864704702460020A9
:1033E000994B0833186820F0EC6042EA0103184357
:1033F000954B08331860704702460020924B083303
:10340000186820F0784042EA010318438E4B0833D5
:1034100018607047014600208B4A0832106820F07F
:10342000030008431060704787480830006800F0C8
:103430000C00704701460020834A0832106820F0D3
:10344000F000084310607047014600207E4A0832B1
:10345000106820F4E05008431060704701460020D7
:10346000794A0832106820F4604040EAC1001060D8
:103470007047F0B500210022002402250026022317
:10348000714F08373F6807F00C0121B1042905D0BE
:10349000082937D105E0724F076036E0714F0760A9
:1034A00033E0694F3F1D3F68C7F38056664F3F1DAD
:1034B0003F6807F03F036EB16A4FB7FBF3F7DFF8E1
:1034C00088C10CF1040CDCF800C0CCF3881C07FBAD
:1034D0000CF40CE0624FB7FBF3F7DFF86CC10CF1B2
:1034E000040CDCF800C0CCF3881C07FB0CF4564F2E
:1034F0003F1D3F68C7F301477F1C7D00B4FBF5F714
:10350000076002E0564F076000BF00BF4E4F08370C
:103510003F6807F0F0010909534F7A5C0768D7400C
:103520004760494F08373F6807F4E051890A4E4F1A
:103530007A5C4768D7408760434F08373F6807F495
:103540006041490B484F7A5C4768D740C760F0BD7F
:10355000002100F44072B2F5407F0AD13A4A0832A5
:10356000116821F4F811414A02401143364A0832E9
:103570001160354A70321268C0F30B031A43324BA4
:1035800070331A60704735494439086070473349D1
:10359000403908607047364908607047014600208E
:1035A000294A8C32106820F440100843106070479C
:1035B00001460020244A8C32106820F44000084361
:1035C00010607047014600201F4A8C32106820F0BE
:1035D0001F004A1E10431C4A8C321060704701467F
:1035E0000020194A8C32106820F4F8504A1E40EA34
:1035F0000220154A8C321060704701460020124AA2
:103600008C32106820F4403008431060704719492C
:103610000860704739B10C4A3032126802430A4BD5
:1036200030331A6006E0084A303212688243064B93
:1036300030331A607047F9B1034A343212680243DA
:10364000014B34331A601CE000380240FFFFF6EAF9
:10365000103000240030002000004742800E474216
:103660000024F40000127A0049010020FFFCFF0F43
:103670005C014742E01147428F4A126882438E4BF9
:103680001A60704739B18C4A121D126802438A4B86
:103690001B1D1A6006E0884A121D12688243864B81
:1036A0001B1D1A60704739B1834A0C3212680243FD
:1036B000814B0C331A6006E07F4A0C321268824359
:1036C0007D4B0C331A60704739B17B4A1032126857
:1036D0000243794B10331A6006E0774A10321268C1
:1036E0008243754B10331A60704739B1724A243ADD
:1036F00012680243704B243B1A6006E06E4A243A7B
:10370000126882436C4B243B1A60704739B16A4A95
:10371000203A12680243684B203B1A6006E0664A72
:10372000203A12688243644B203B1A60704739B1DB
:10373000614A1C3A126802435F4B1C3B1A6006E068
:103740005D4A1C3A126882435B4B1C3B1A6070470F
:1037500039B1594A143A12680243574B143B1A6064
:1037600006E0554A143A12688243534B143B1A60E0
:10377000704739B1504A103A126802434E4B103B21
:103780001A6006E04C4A103A126882434A4B103BDA
:103790001A60704739B1484A1C3212680243464BDE
:1037A0001C331A6006E0444A1C3212688243424BC2
:1037B0001C331A60704739B13F4A20321268024305
:1037C0003D4B20331A6006E03B4A203212688243A8
:1037D000394B20331A60704739B1374A24321268A6
:1037E0000243354B24331A6006E0334A2432126810
:1037F0008243314B24331A60704739B12E4A2C3240
:10380000126802432C4B2C331A6006E02A4A2C32F1
:1038100012688243284B2C331A60704739B1264A0C
:10382000303212680243244B30331A6006E0224AD9
:10383000303212688243204B30331A6070470128BF
:1038400008D11D493C31096841F008011A4A3C324F
:10385000116007E018493C31096821F00801164A57
:103860003C321160704739B1134A273A127802434B
:10387000114B273B1A7006E00F4A273A1278824311
:103880000D4B273B1A7070470B484030006840F0E2
:103890008070094940310860704701460020064A9F
:1038A000283A12680A400AB1012000E0002070475F
:1038B00001492639087070473438024010B501219B
:1038C0008803FFF756FF00214FF48040FFF751FFB8
:1038D00010BD1C49086070471B490862704730B52D
:1038E00000228B071C0F0F2303FA04F2154B083339
:1038F0008C1053F824309343124C08348D1044F844
:10390000253023468C1053F824308C07240F00FAFE
:1039100004F423430B4C08348D1044F8253030BD9B
:103920000949DC3108607047084908607047002089
:1039300004492031096801F4807109B1012000E0D7
:103940000020704700380140000027420004274251
:1039500010B50446FA48844208D101211020FFF72F
:1039600008FF00211020FFF704FF57E0F5488442CC
:1039700009D101214804FFF7EBFE00214FF400308C
:10398000FFF7E6FE4AE0F048844209D101218804AD
:10399000FFF7DEFE00214FF48020FFF7D9FE3DE067
:1039A000EA48844209D10121C804FFF7D1FE002171
:1039B0004FF40020FFF7CCFE30E0E548844209D107
:1039C00001210805FFF7C4FE00214FF48010FFF726
:1039D000BFFE23E0DF48844208D101212020FFF709
:1039E000C8FE00212020FFF7C4FE17E0DA48844219
:1039F00009D101218807FFF7ABFE00214FF080407D
:103A0000FFF7A6FE0AE0D548844207D10121400510
:103A1000FFF79EFE00216005FFF79AFE10BD2DE91D
:103A2000FF4705460E460024A14600BFA046B089C8
:103A300000B100BF2C8A24F44054F08804432C8247
:103A4000AC8941F20C608443B088318908437189A4
:103A500008430443AC81AC8A24F44074B089044325
:103A6000AC826846FFF705FDB548854202D0B948EB
:103A7000854202D1DDF80C9001E0DDF80890A889BC
:103A800000F4004040B109EBC90000EB09103168B7
:103A90004900B0FBF1F707E009EBC90000EB0910A2
:103AA00031688900B0FBF1F76420B7FBF0F0040146
:103AB0002009642101FB1078A88900F4004040B17E
:103AC000322000EBC800B0FBF1F000F00700044327
:103AD00008E0322000EB08106421B0FBF1F000F0A8
:103AE0000F0004432C81BDE8FF874FF4165101609D
:103AF00000218180C18001810C21418100218181CF
:103B0000704710B502460020108A20F470600B88C0
:103B10004C8823438C882343CC882343184310824A
:103B200010BD0021018041808180C180704721B19A
:103B3000828942F40052828104E082894DF6FF734B
:103B40001A4082817047028B02F47F420283028B0B
:103B50000A430283704721B1828942F40042828184
:103B600003E08289C2F30E028281704721B1828A0A
:103B700042F40062828204E0828A4FF2FF731A40AC
:103B800082827047C1F308028280704701468888AC
:103B9000C0F308007047028A4FF6F0731A400282A1
:103BA000028A0A430282704721B1828942F00202EE
:103BB000828104E082894FF6FD731A40828170474A
:103BC00082894FF2FF731A40828182890A4382817F
:103BD0007047028A4FF6DF731A400282028A0A4354
:103BE0000282704721B1028A42F48042028204E0DC
:103BF000028A4BF6FF731A4002827047818941F0B6
:103C000001018181704721B1828A42F008028282DB
:103C100004E0828A4FF6F7731A4082827047028B63
:103C2000D2B20283028B42EA01220283704721B1A1
:103C3000828A42F02002828204E0828A4FF6DF7399
:103C40001A408282704721B1828A42F01002828239
:103C500004E0828A4FF6EF731A4082827047828AAC
:103C60004FF6FB731A408282828A0A43828270472F
:103C700021B1828A42F00202828204E0828A4FF6F7
:103C8000FD731A40828270471AB1838A0B43838284
:103C900002E0838A8B4383827047F0B50346002499
:103CA00000260025002040F66A17B94200D100BF67
:103CB0001846C1F3421401F01F06012707FA06F562
:103CC000012C01D10C3004E0022C01D1103000E0B5
:103CD00014301AB107682F43076002E00768AF434A
:103CE0000760F0BD02460020B1F5007F00D100BFA3
:103CF00013880B400BB1012000E00020704701F455
:103D00000072B2F5007F00D100BFCA430280704745
:103D100070B50246002400230025002040F66A16F4
:103D2000B14200D100BFC1F3421501F01F030126CB
:103D300006FA03F3012D13D19689334017E00000F2
:103D4000001001400044004000480040004C00408A
:103D5000005000400014014000780040007C00400A
:103D6000022D02D1168A334001E0968A33400C12AC
:103D7000012606FA04F41688344013B10CB1012070
:103D800000E0002070BD10B50022002340F66A1448
:103D9000A14200D100BF0A1201249440A3B2DC4327
:103DA000048010BD30B943F2DB028100A1F1C041B3
:103DB0000A6005E043F2D2028100A1F1C0410A602D
:103DC0006FF07042411C8900A1F1C0410A6081007E
:103DD000A1F1C041C1F80421704730B50021002293
:103DE00000230468A400A4F1C0442168FE4C2140D3
:103DF000D0E901452C43C5682C4305692C4345692E
:103E00002C4385692C43C5692C43056A2C43456ABC
:103E10002C43856A2C43C56A2C43056B2C432143F4
:103E20000468A400A4F1C04421608468082C0BD16C
:103E30000468A400A4F1C044246844F04005046868
:103E4000A400A4F1C04425600468641CA400A4F18B
:103E5000C044226802F04042446B2468456B6D68A0
:103E600044EA0514456BAD6844EA0524456BAD8909
:103E700044EA0544456B2D8A44EA0554456B2D7D83
:103E800044EA0564456BAD692C4322430468641C15
:103E9000A400A4F1C0442260C46AB4F5804F20D1CC
:103EA0000468A400A4F1C044D4F80431CF4C2340EA
:103EB000846B2468856B6D6844EA0514856BAD6876
:103EC00044EA0524856BAD8944EA0544856BAD69F8
:103ED0002C4323430468A400A4F1C044C4F8043173
:103EE00007E06FF070450468A400A4F1C044C4F872
:103EF000045130BD00210160022141600021816038
:103F0000C160016141618161C16101624FF4805111
:103F10004162490081620021C1620163B449416389
:103F20008163704751B18200A2F1C042126842F031
:103F300001038200A2F1C042136009E08200A2F1F5
:103F4000C0421268AB4B1A408300A3F1C0431A6011
:103F5000704710280AD118214FF0204211664021E5
:103F600051664FF0FC319166D16610E01821A24AEB
:103F7000116040214FF02042C2F884104FF0FC3114
:103F80009D4A083211604FF02042C2F88C107047F1
:103F900030B50021002200230468102C03D14FF01B
:103FA0002044216E01E0944C2168944C21404468E7
:103FB00044F0080485682C43C5682C4305692C43EC
:103FC000456944EA4524856944EA45342143046847
:103FD000102C03D14FF02044A26E02E0864C08342E
:103FE00022680022C4692468C5696D6844EA052412
:103FF000C5692D8944EA0544C5692D7B44EA0564F9
:1040000022430468102C03D14FF02044E36E02E0F9
:104010004FF02044E36E0023046A2468056A6D684B
:1040200044EA0524056A2D8944EA0544056A2D7B86
:1040300044EA056423430468102C05D14FF0204462
:104040002166A266E36608E06B4C21604FF02044D5
:10405000C4F88820684C0C34236030BD1021016006
:10406000002141608160C160016141618161FC2189
:10407000C2691160C2695160C2699160C269D16050
:10408000026A1160026A5160026A9160026AD1603C
:10409000704799B1102808D14FF02042126E42F0BB
:1040A00004024FF020431A661DE0534A126842F0A2
:1040B00004024FF02043C3F8802014E0102809D1F7
:1040C0004FF02042126E4B4BDB1E1A404FF0204344
:1040D0001A6608E0484A1268464BDB1E1A404FF049
:1040E0002043C3F88020704799B1102808D14FF0C1
:1040F0002042126E42F040024FF020431A661DE04B
:104100003D4A126842F040024FF02043C3F880203D
:1041100014E0102809D14FF02042126E354B3F3B7E
:104120001A404FF020431A6608E0334A1268314BB8
:104130003F3B1A404FF02043C3F8802070470146B0
:104140000020102903D14FF02042506F02E02A4A8C
:104150001432106870471820274920310860002069
:104160000906C1F8A4004FF0FC302349283108604B
:10417000091D0860091D0860704770B50021002204
:10418000002300241C4D203529681D4D2940056859
:1041900045F01005466845EA4625866845EA4635F5
:1041A00029434FF02045C5F8A010134D28352A6843
:1041B0000022C5682D68C668766845EA0625C66887
:1041C000368945EA0645C668367B45EA06652A43D0
:1041D0004FF02045C5F8A820074D2C352B6800234B
:1041E00005692D6806690DE08000F7FF0000F0CF3B
:1041F000B8150108FEFF0F00800000A08101F0FF4C
:10420000CD01FEFF766845EA06250669368945EA4E
:1042100006450669367B45EA06652B434FF0204587
:10422000C5F8AC30824D2C68002445692D6846697C
:10423000766845EA06254669368945EA06454669AF
:10424000367B45EA06652C434FF02045C5F8B04063
:1042500070BD0021016041608160FC21C268116075
:10426000C2685160C2689160C268D1600269116021
:1042700002695160026991600269D160426911600E
:1042800042695160426991604269D160704748B1AA
:1042900067491039096841F004014FF02042C2F823
:1042A000A01008E0624910390968624A11404FF0D5
:1042B0002042C2F8A010704710B5F2B1102807D103
:1042C0004FF020435B6E0B434FF02044636632E0B7
:1042D000B0F5807F08D1564B2C3B1B680B434FF049
:1042E0002044C4F8843026E0514B0C3B1B680B4340
:1042F0004FF02044C4F8A4301DE0102807D14FF03F
:1043000020435B6E8B434FF02044636613E0B0F5AF
:10431000807F08D1464B2C3B1B688B434FF02044D9
:10432000C4F8843007E0424B0C3B1B688B434FF0D2
:104330002044C4F8A43010BD10B50246002000236C
:10434000102A03D14FF02044636E09E0B2F5807F5C
:1043500003D1374C2C3C236802E0354C0C3C2368DD
:1043600003EA01040CB1012000E0002010BD102878
:1043700007D14FF02042526E8A434FF020435A66D5
:1043800013E0B0F5807F08D1294A2C3A12688A439D
:104390004FF02043C3F8842007E0254A0C3A126806
:1043A0008A434FF02043C3F8A420704770B50246FB
:1043B0000020002300240025102A03D14FF02046BE
:1043C000736E09E0B2F5807F03D1194E2C3E33683D
:1043D00002E0174E0C3E336803EA010403EAD105FC
:1043E00014B10DB1012000E0002070BD102808D1EB
:1043F0004FF02042526E22EAD1024FF020435A661B
:1044000015E0B0F5807F09D1094A2C3A126822EAFA
:10441000D1024FF02043C3F8842008E0044A0C3A4C
:10442000126822EAD1024FF02043C3F8A42070475B
:10443000B00000A0FBFF0F0010B50446FE48844208
:1044400008D101210846FFF794F900210120FFF768
:1044500090F99DE0B4F1804F08D101210846FFF7A3
:1044600077F900210120FFF773F991E0F3488442C6
:1044700008D101210220FFF76BF900210220FFF78C
:1044800067F985E0EE48844208D101210420FFF756
:104490005FF900210420FFF75BF979E0E9488442E5
:1044A00008D101210820FFF753F900210820FFF768
:1044B0004FF96DE0E448844208D101211020FFF754
:1044C00047F900211020FFF743F961E0DF488442FB
:1044D00008D101212020FFF73BF900212020FFF720
:1044E00037F955E0DA48844208D101210220FFF76C
:1044F00040F900210220FFF73CF949E0D548844209
:1045000009D101210804FFF734F900214FF480306C
:10451000FFF72FF93CE0D048844209D1012148043B
:10452000FFF727F900214FF40030FFF722F92FE0C1
:10453000CA48844209D101218804FFF71AF90021F1
:104540004FF48020FFF715F922E0C548844208D1D6
:1045500001214020FFF7FCF800214020FFF7F8F888
:1045600016E0C048844208D101218020FFF7F0F80E
:1045700000218020FFF7ECF80AE0BB48844207D115
:1045800001218015FFF7E4F80021A015FFF7E0F8FE
:1045900010BD00220288A84B98420ED0AC4B984226
:1045A0000BD0B0F1804F08D0A44B984205D0A44B5B
:1045B000984202D0A34B984204D14FF68F731A4011
:1045C0004B881A43A04B984207D0A04B984204D086
:1045D0004FF6FF431A400B891A4302804B68C362AF
:1045E0000B880385944B984202D0994B984201D195
:1045F0008B7A03860123838270474FF0FF3141603D
:104600000021018001814180817270470185828291
:1046100070470A46002101884FF68F7319401143F5
:104620000180704741627047C16270470146486A25
:1046300070470146088D704721B1028842F002029E
:10464000028004E002884FF6FD731A400280704732
:1046500021B1028842F00402028004E002884FF691
:10466000FB731A400280704721B1028842F0800239
:10467000028004E002884FF67F731A400280704780
:1046800002884FF6F7731A40028002880A430280BC
:10469000704702884FF6FF431A40028002880A439F
:1046A0000280704721B1028842F00102028004E0DA
:1046B00002884FF6FE731A400280704770B50024DE
:1046C00000220023058C4FF6FE7635400584028CCF
:1046D0008388048B4FF68F752C40B51E2C400D88B7
:1046E0002C43751E2A408D892A434D882A43524DFA
:1046F000A84202D0564DA84213D14FF6F7752A4072
:10470000CD892A434FF6FB752A408D882A434FF600
:10471000FF652B404FF6FF552B400D8A2B434D8AEA
:104720002B43838004838D684563028470BD70B51C
:10473000002400220023058C4FF6EF7635400584D7
:10474000028C8388048B48F6FF752C404FF6FF459A
:104750002C400D884FF6FF7606EA05252C434FF6D0
:10476000DF752A408D8906EA05152A434D8806EA39
:1047700005152A43304DA84202D0354DA8421DD11F
:104780004FF67F752A40CD894FF6FF7606EA05156C
:104790002A434FF6BF752A408D8806EA05152A433D
:1047A0004FF6FF352B404FF2FF752B400D8A06EA7E
:1047B00085052B434D8A06EA85052B4383800483B8
:1047C0008D688563028470BD70B5002400220023CB
:1047D000058C4FF6FF6635400584028C8388848BF8
:1047E0004FF68F752C404FF6FC752C400D882C43EE
:1047F0004FF6FF552A408D894FF6FF7606EA0525CC
:104800002A434D8806EA05252A430B4DA84202D0CB
:104810000F4DA84238D14FF2FF752A40CD894FF68F
:10482000FF7606EA05252A434FF6FF352A408D8894
:1048300006EA05252A4319E0000001400004004073
:1048400000080040000C0040001000400014004030
:104850000004014000400140004401400048014084
:1048600000180040001C0040002000404EF6FF757C
:104870002B404DF6FF752B400D8A06EA05152B439C
:104880004D8A06EA05152B43838084838D68C563B2
:10489000028470BD70B5002200230024058C4EF602
:1048A000FF7635400584038C8488828B48F6FF753B
:1048B0002A404FF6FF452A400D884FF6FF7606EA5C
:1048C00005252A434DF6FF752B408D8906EA0535EF
:1048D0002B434D8806EA05352B43FE4DA84202D0F6
:1048E000FD4DA84208D14BF6FF752C400D8A4FF6BE
:1048F000FF7606EA85152C43848082838D680564E3
:10490000038470BD002101804180818081608181AC
:10491000C18101824182704770B5034600200024A6
:104920001846183001258D40ACB21D8CA5431D845E
:1049300009B108290AD100EB610005684FF68F76AE
:10494000354005600568154305600FE00D1FC5F390
:104950004E052844056848F6FF7635400560056831
:104960004FF6FF7606EA02263543056070BD4163C7
:10497000704781637047C1637047016470470A469E
:104980000021018B4FF68F7319401143018370474B
:104990000A460021018B48F6FF7319404FF6FF735A
:1049A00003EA02231943018370470A460021818BE1
:1049B0004FF68F7319401143818370470A460021D7
:1049C000818B48F6FF7319404FF6FF7303EA022309
:1049D0001943818370470A460021018B4FF6F77314
:1049E00019401143018370470A460021018B4FF2A1
:1049F000FF7319404FF6FF7303EA02231943018343
:104A000070470A460021818B4FF6F7731940114316
:104A1000818370470A460021818B4FF2FF73194052
:104A20004FF6FF7303EA02231943818370470A4656
:104A30000021018B4FF6FB7319401143018370472E
:104A40000A460021018B4FF6FF3319404FF6FF73E2
:104A500003EA02231943018370470A460021818B30
:104A60004FF6FB7319401143818370470A460021BA
:104A7000818B4FF6FF3319404FF6FF7303EA022391
:104A80001943818370470A460021018B4FF67F73DB
:104A900019401143018370470A460021018BC1F37D
:104AA0000E014FF6FF7303EA022319430183704797
:104AB0000A460021818B4FF67F7319401143818391
:104AC00070470A460021818BC1F30E014FF6FF7338
:104AD00003EA02231943818370470A460021018CAF
:104AE0004FF6FD7319401143018470470A460021B7
:104AF000018C4FF6F77319401143018470470A4641
:104B00000021018C4FF6DF7319404FF6FF7303EA63
:104B100002131943018470470A460021018C4FF6A5
:104B20007F7319404FF6FF7303EA021319430184A0
:104B300070470A460021018C4FF6FF5319404FF68B
:104B4000FF7303EA02231943018470470A460021D8
:104B5000018C4FF2FF7319404FF6FF7303EA0223F3
:104B60001943018470470A460021018C4DF6FF73FA
:104B700019404FF6FF7303EA02331943018470476B
:104B800030B5002301248C40A3B2048C9C430484E0
:104B9000048C02FA01F5ADB22C43048430BD30B56B
:104BA000002304248C40A3B2048C9C430484048C12
:104BB00002FA01F5ADB22C43048430BD828B4FF272
:104BC000FF331A408283828B4FF6FF7303EA01237F
:104BD0001A4382837047F0B50C4615460021002227
:104BE0000026078C4EF6FF7C07EA0C070784818BB2
:104BF000028C4FF6FF7707EA043640F6FF4739404C
:104C00004FF6FF7707EA052739434FF6FF7707EAA4
:104C10000337394345F6FF773A4046F480573A4325
:104C200081830284F0BD828B4FF6F3731A40828336
:104C3000828B0A4382837047F0B50C4615460021EB
:104C400000220026078C4FF6FF6C07EA0C0707844A
:104C5000818B028C4FF6FF7707EA04264FF60C771C
:104C600039404FF6FF7707EA03172F4339434FF2D6
:104C7000FF573A4046F480773A4381830284F0BD7F
:104C8000028B4FF2FF331A400283028B4FF6FF7301
:104C900003EA01231A4302837047F0B50C46154618
:104CA000002100220026078C4FF6EF7C07EA0C0754
:104CB0000784018B028C4FF6FF7707EA041640F653
:104CC000FF4739404FF6FF7707EA033739434FF67E
:104CD000FF7703E0000001400004014007EA0527D8
:104CE00039434FF65F773A4046F010073A43018365
:104CF0000284F0BD028B4FF6F3731A400283028BDD
:104D00000A4302837047F0B50C4615460021002285
:104D1000068C4FF6FE773E400684018B028C4FF6E0
:104D20000C7631407E1C06EA03162E4331434FF6C3
:104D3000F576324044F00106324301830284F0BD2F
:104D400070B505460C46208850B92389A288618831
:104D50002846FFF7D8FFE1882846FFF7CBFF25E07C
:104D6000208804280AD12389A28861882846FFF771
:104D700094FFE1882846FFF783FF17E02088082882
:104D80000AD12389A28861882846FFF755FFE18868
:104D90002846FFF748FF09E02389A2886188284652
:104DA000FFF719FFE1882846FFF708FF70BD0021D3
:104DB00001804180012181800021C18001817047F3
:104DC0002DE9F04105460C4600260127608808B908
:104DD000022600E00026A088012801D1022700E079
:104DE00001272088A0B92389A28861882846FFF777
:104DF0008AFFE1882846FFF77DFF23893A4631463E
:104E00002846FFF74AFFE1882846FFF739FF13E0FD
:104E10002389A28861882846FFF73FFFE18828465A
:104E2000FFF72EFF23893A4631462846FFF76BFFEE
:104E3000E1882846FFF75EFFBDE8F0810146486B38
:104E400070470146886B70470146C86B7047014642
:104E5000086C70470A884B881A438B881A43CB88A2
:104E60001A430B891A434B891A438B891A43A0F8BA
:104E7000442070470021018041808180C1800181F0
:104E800041818181704731B1B0F8442042F4004241
:104E9000A0F8442005E0B0F84420C2F30E02A0F8C8
:104EA0004420704721B1828842F00402828004E0ED
:104EB00082884FF6FB731A408280704721B1828846
:104EC00042F00102828004E082884FF6FE731A40AD
:104ED000828070471AB183890B43838102E0838902
:104EE0008B43838170478182704702460020138A7A
:104EF0000B400BB1012000E000207047CA43028242
:104F0000704730B50246002000230024158A05EAC8
:104F10000103958905EA010413B10CB1012000E0F9
:104F2000002030BDCA430282704741EA0203A0F864
:104F3000483070471AB183890B43838102E083892B
:104F40008B438381704721B1828842F008028280BE
:104F500004E082884FF6F7731A4082807047018917
:104F60004FF6F8721140018170470A46002101890D
:104F70004FF68F73194011430181704730B50446D5
:104F80000D4629462046FFF7F0FF208940F0070034
:104F9000208130BD2DE9F04104460D4616461F46DE
:104FA000602D06D13B46012231462046FFF775FEB3
:104FB00005E03B46012231462046FFF7A4FE294684
:104FC0002046FFF7D2FF208940F007002081BDE88E
:104FD000F08130B50C4600210189C9B24FF6FF754A
:104FE00005EA0325154325432943018130BD2DE9F9
:104FF000F04105460E4617469846002443463A4679
:1050000031462846FFF7E5FF2C894FF6F87004403B
:1050100044F007044FF68F70044044F070042C8174
:10502000BDE8F081F0B504460D4616461F463B46E6
:10503000324629462046FFF7CCFF208940F48040C5
:105040002081F0BD82884FF68F731A40828082885B
:105050000A438280704702894FF6F8731A40028132
:1050600002890A430281704702894FF67F731A4012
:10507000028102890A4302817047F0B50C46154649
:105080001E460021002200230189028B038C4FF66B
:10509000F877394021434FF6FC473A4040F2011778
:1050A0003A434FF6DD773B404FF6FF7707EA0617A6
:1050B0002F433B43018102830384F0BD21B18288E9
:1050C00042F08002828004E082884FF67F731A40AB
:1050D00082807047A0F850107047000010B5012181
:1050E0000802FEF746FB00214FF48070FEF741FBFB
:1050F00010BD30B50246002000235068F84C204017
:105100000D790C6844EA0524204350609068F54C02
:105110002040D1E903542C438D682C434D7944EA57
:10512000450420439060D06A20F470000C7D641E1A
:10513000E4B2234340EA0350D06230BD0021016055
:10514000017141718160C160016101210175704788
:105150000021E54A1168E54A1140D0E900231A43CD
:1051600083681A43C3681A431143E14AC2F804131F
:1051700070470021016041608160C160704721B1CA
:10518000826842F00102826003E0826822F001023C
:10519000826070470A4600214168D64B194011438E
:1051A000416070474162826270470A46002141684F
:1051B00021F01F0111434160704738B1CA490968A5
:1051C00041F40001CA4AC2F8041306E0C64909685E
:1051D00021F40001C64AC2F80413704738B1C2492D
:1051E000096841F48001C24AC2F8041306E0BE49CE
:1051F000096821F48001BE4AC2F804137047F0B573
:1052000004460D4600200021092D11DDE068A5F1BE
:105210000A0606EB4607072606FA07F18843A5F1BA
:105220000A0606EB460603FA06F10843E0600CE0C6
:10523000206905EB4507072606FA07F1884305EBC9
:10524000450603FA06F108432061072A0FDA606B6E
:10525000561E06EB86071F2606FA07F18843561EE0
:1052600006EB860605FA06F10843606322E00D2A84
:105270000FDA206BD61F06EB86071F2606FA07F10A
:105280008843D61F06EB860605FA06F1084320631D
:1052900010E0E06AA2F10D0606EB86071F2606FA6B
:1052A00007F18843A2F10D0606EB860605FA06F122
:1052B0000843E062F0BD816841F080418160704741
:1052C000014600208A6802F080420AB1012000E015
:1052D0000020704721B1826842F48062826003E05E
:1052E000826822F480628260704721B1826842F055
:1052F0000202826003E0826822F00202826070474C
:1053000010B50A4600210023416821F46041531E74
:1053100041EA4331416010BD21B1426842F400626C
:10532000426003E0426822F4006242607047014636
:10533000C86C80B270476C48001D0068704721B18E
:10534000826842F48072826003E0826822F4807294
:105350008260704721B1826842F40072826003E08B
:10536000826822F400728260704738B15E49096831
:1053700041F400515E4AC2F8041306E05A49096834
:1053800021F400515A4AC2F804137047F0B504469C
:105390001546002000220026092911DDE068A1F150
:1053A0000A0707EB470C072707FA0CF29043A1F115
:1053B0000A0707EB470703FA07F21043E0600CE027
:1053C000206901EB410C072707FA0CF2904301EB2F
:1053D000410703FA07F210432061A06BC0F30156A6
:1053E000EF1C06F1010CA7EB0C0707EB870C1F273E
:1053F00007FA0CF29043EF1C06F1010CA7EB0C0727
:1054000007EB870701FA07F21043A063F0BD10B560
:105410000A4600210023816B21F44011531E41EA0A
:105420000351816310BD08B5002300930090009BD9
:105430000B440093009B1A6008BD0A460021816856
:1054400021F470211143816070470A460021816870
:1054500021F44011114381607047816841F480015B
:1054600081607047014600208A6802F480020AB118
:10547000012000E00020704721B1426842F48062C0
:10548000426003E0426822F480624260704721B1CA
:10549000426842F48052426003E0426822F4805243
:1054A0004260704708B5024600200090009201F16A
:1054B0002800009B184400900098006880B208BD46
:1054C00010B50B460021D9B2012404FA01F11AB13A
:1054D00044680C43446002E044688C43446010BD5F
:1054E000FFFEFFFCFDF7FFC004230140E030FCFF9E
:1054F00000200140FFFD3FFF0246002013680B40E3
:105500000BB1012000E000207047CA4302607047E1
:1055100070B502460020002300240B1255680126B6
:105520008E4005EA060415681D4015B10CB1012036
:1055300000E0002070BD00220A12D34303607047D0
:1055400010B50446FE48844209D101214806FEF701
:10555000FFF800214FF00070FEF7FAF808E0012193
:105560008806FEF7F5F800214FF08060FEF7F0F8AE
:1055700010BD30B5024600200023146824F0020458
:105580001460146844F00104146000E05B1C54686B
:1055900004F001041CB94FF6FF74A342F6D154681D
:1055A00004F001040CB900206CE08C79012C04D1CA
:1055B000146844F08004146003E0146824F080044C
:1055C0001460CC79012C04D1146844F040041460B8
:1055D00003E0146824F0400414600C7A012C04D118
:1055E000146844F02004146003E0146824F02004DC
:1055F00014604C7A012C04D1146844F01004146037
:1056000003E0146824F0100414608C7A012C04D197
:10561000146844F00804146003E0146824F00804DB
:105620001460CC7A012C04D1146844F00404146092
:1056300003E0146824F0040414608C78A407CD7887
:1056400044EA05640D7944EA05444D7944EA055479
:105650000D886D1E2C43D461146824F0010414607D
:10566000002300E05B1C546804F001041CB14FF6F9
:10567000FF74A342F6D1546804F001040CB1002079
:1056800000E0012030BD10B50021837A012202FA2A
:1056900003F1AC4A126842F00102AA4B1A60A94A0F
:1056A0001C3212688A43A74B1C331A60027BCAB9AA
:1056B000A44A0C3212688A43A24B0C331A60428807
:1056C000C38842EA03439F4A4032847A42F8343026
:1056D0000288838842EA03439A4A4032847A02EB82
:1056E000C4025360027B012A19D1964A0C32126817
:1056F0000A43944B0C331A604288038842EA0343FE
:10570000904A4032847A42F83430C288838842EA30
:1057100003438C4A4032847A02EBC4025360C27A5B
:105720003AB9884A121D12688A43864B1B1D1A60BB
:1057300006E0844A121D12680A43824B1B1D1A6040
:10574000028932B97F4A143212688A437D4B14337E
:105750001A600289012A06D17A4A143212680A4371
:10576000784B14331A60427B012A06D1754A1C32E9
:1057700012680A43734B1C331A60724A126822F093
:105780000102704B1A6010BD00218171C17101725C
:1057900041728172C1728170C17003210171022155
:1057A00041710121018070476649096841F001019A
:1057B000644A11601146096843F60E729143614ACA
:1057C00011601146096841EA00211160114609681B
:1057D00021F001011160704721B1026842F480326A
:1057E000026003E0026822F4803202607047E1B197
:1057F000026842F0800202604FF4C272125842F412
:1058000080734FF4C27213504FF4CA72125842F4AC
:1058100080734FF4CA7213504FF4D272125842F48C
:1058200080734FF4D27213501BE0026822F08002A2
:1058300002604FF4C272125822F480734FF4C272A5
:1058400013504FF4CA72125822F480734FF4CA7284
:1058500013504FF4D272125822F480734FF4D27264
:105860001350704710B502460020936803F0806320
:10587000B3F1806F00D110E0936803F00063B3F1DF
:10588000006F01D1012008E0936803F08053B3F169
:10589000805F01D1022000E00420042879D002F5C5
:1058A000C07303EB00131B6803F0010402F5C0731F
:1058B00003EB00131C600B7A7BB94B7A0C8843EA2C
:1058C000445302F5C07404EB00142468234302F52A
:1058D000C07404EB0014236010E00B7A4C6843EAB8
:1058E000C4034C7A234302F5C07404EB001424680B
:1058F000234302F5C07404EB001423608B7A03F099
:105900000F038B7202F5C07303EB00135B6823F087
:105910000F0402F5C07303EB00135C6002F5C07363
:1059200003EB00135B688C7A234302F5C07404EB2D
:10593000001463608B7B1C064B7B44EA034403E04A
:1059400000640040006600400B7B44EA0323CC7AED
:10595000234302F5C07404EB0014A3608B7C1C0687
:105960004B7C44EA03440B7C44EA0323CC7B234373
:1059700002F5C07404EB0014E36002F5C07303EB9E
:1059800000131B6843F0010402F5C07303EB00131E
:105990001C6010BD10B50246002321B1012907D0BB
:1059A00002290FD109E09068F94C00EA04030BE0EA
:1059B0009068F84C00EA040306E09068F64C00EAB0
:1059C000040301E0002300BF00BFF44C181BA342F6
:1059D00016D007DC83B16FF08060184470B10228E4
:1059E00018D111E0B0F5007F10D0ED4C204448B143
:1059F000B0F5003F0ED10BE002230DE000230BE0D9
:105A0000002309E0002307E0012305E0012303E070
:105A1000012301E0002300BF00BFD8B210BD21B1B7
:105A2000012907D002290FD109E0826842F08002E3
:105A300082600AE0826842F40042826005E0826887
:105A400042F40002826000E000BF00BF704710B562
:105A500000F5D87303EB01131B6803F00403137202
:105A6000137A53B900F5D87303EB01131B6840F2A6
:105A7000FF7404EA5353136009E000F5D87303EB95
:105A800001131B686FF0604404EAD303536000F510
:105A9000D87303EB01131B6803F00203537200F584
:105AA000D87303EB01135B6803F00F03937200F5E7
:105AB000D87303EB01135B681B0AD37400F5D8732A
:105AC00003EB01139B68D37200F5D87303EB01134A
:105AD0009B681C0A147300F5D87303EB01139B68D1
